:020000040000FA
:100000000C9409010C9433010C9433010C943301CA
:100010000C9433010C9433010C9433010C94330190
:100020000C9433010C943C380C9433010C94330140
:100030000C9433010C946B380C9433010C94330101
:100040000C9433010C9433010C94C6350C94330199
:100050000C9433010C9433010C9433010C94330150
:100060000C9433010C9433010C9470360C943301CE
:100070000C943A360C9410360C9433010C943301E2
:100080000C948D370C9433010C943301204F4800AD
:10009000204348004558540041434300204D54003C
:1000A000204C540020534400204244004352480056
:1000B000524944002020200048434C0052494D0042
:1000C0002048540020202000545247002B34002B9D
:1000D00033002B32002B31002B30002D31002D321C
:1000E000002D33002042004123002041004723001F
:1000F00020470046230020460020450044230020DE
:100100004400432300204300546170200053746571
:1001100070005074726E0054725772005472506CBA
:1001200000484800432F4F0053594E0046524500A7
:1001300045585000534C56004D535400C800C4005D
:10014000C000BC00B800B400B000AC00A800A4001F
:10015000A0009C009800940090008C00E100DE005C
:10016000DB00D800D500D200CF00CC000501020191
:10017000FF00FC00F900F600F300F000ED00EA00DB
:10018000E700E4001C01170112010D010801240120
:1001900021012C0128013801340130010000210027
:1001A000240027002A0000002200250028002B0040
:1001B000020202020202020204040404040404040F
:1001C000030303030303030301010101010101010F
:1001D0000102040810204080010204081020408021
:1001E0000102040810204080010204081020408011
:1001F0000000000203000A0B0000000005040908CB
:1002000000000000000000000000000000000000EE
:10021000933811241FBECFEFD0E4DEBFCDBF14E072
:10022000A0E0B1E0E6EFF2E900E00BBF02C007900A
:100230000D92AA34B107D9F725E3AAE4B4E001C0CE
:100240001D92AB3BB207E1F711E0C9E0D1E004C079
:100250002197FE010E947049C830D107C9F70E945A
:1002600066390C9479490C94000090911E34809169
:100270001D342FEF3FEF981748F4E92FF0E0E552D7
:10028000FC4C208130E09F5F90931E34C90108959B
:1002900090911E3480911D342FEF3FEF981748F452
:1002A000E92FF0E0E552FC4C208130E09F5F909315
:1002B0001E34C90108959091DA339111FCCF91E079
:1002C0009093DA339093D9332FEF2093D833109251
:1002D000D733260F2093D6339093D5339091D533CF
:1002E000880F892B8093D5338091D4338130D9F412
:1002F0001092D4338091D5338093BB0085EC8093EA
:10030000BC008091DA338130E1F38091D7338617D6
:1003100010F46091D733A2E9B3E3EBEDF3E380E0AF
:10032000861303C0089585EEEACF9D9191938F5F68
:10033000F7CF60E40E945B0110921E3480931D345D
:1003400008952091913381E0233408F040C08091DA
:10035000DA338111FCCF8091903392E09093DA33BD
:1003600091E09093D9339FEF9093D8331092D73385
:100370002093D633AEE4B3E3E2E9F3E390E029134C
:100380002DC01092D5339091D533880F892B80934F
:10039000D5338091D433813029F51092D4338091B4
:1003A000D5338093BB0085EC8093BC008091DA3319
:1003B0008230E1F38091D8338F3FB1F08091D83310
:1003C0008032A1F08091D833803391F084E0109294
:1003D0004D331092913310924C3308953D913193E7
:1003E0009F5FCDCF85EEE0CF80E0F1CF82E0EFCF11
:1003F00083E0EDCF0C94A101E0914834F0914934B1
:10040000309719F083E894E3099580918434823F12
:1004100009F4BAC090F5803C09F499C0B8F4803969
:1004200009F44FC040F4E0914C34F0914D348038E1
:1004300009F44BC00895803A09F484C0E091523425
:10044000F0915334803B09F440C00895803E09F494
:1004500062C040F4E0915634F0915734803D09F485
:100460007AC00895803F09F47DC0E0915C34F0913A
:100470005D34813F09F49BC008958A3FC1F1A8F41F
:10048000863F09F499C040F4E0916034F091613402
:10049000833F09F48CC00895883F09F1E0916834E6
:1004A000F0916934893FF9F008958C3F51F120F1C2
:1004B0008E3F61F1E0917034F09171348F3F99F08B
:1004C0000895E0914E34F0914F34309709F479C09B
:1004D0004091863460918534809183340994E09111
:1004E0006434F0916534309709F46BC00994E0915D
:1004F0006634F0916734F7CFE0916A34F0916B3451
:10050000F2CFE0916C34F0916D34EDCFE0916E3428
:10051000F0916F34E8CFE0915834F091593430972E
:1005200009F44FC06091863420E8629FB001112425
:1005300060787F73809185348F77682B70528091BB
:1005400083340994E0915034F0915134BECFE0915E
:100550005434F09155343097A1F1609185348091F5
:1005600083340994E0915A34F0915B34309749F127
:1005700060918534709186346138710510F060E8BF
:1005800070E087E894E30994E0915E34F0915F3481
:100590003097B9F08091863420E8829FC001112401
:1005A00080789F73209185342F77822B0994309720
:1005B00041F0809185340994E0916234F091633484
:1005C00092CF089590E0FC01E051FE4F2491FC0190
:1005D000E053FE4F349180559E4FFC018491882357
:1005E00059F12223C1F022502A30A8F4E22FF0E082
:1005F000E450FD4F0C9470493503390306031D0385
:100600000B030B03210327032B033103909180007D
:100610009F7790938000E82FF0E0EE0FFF1FEA55E0
:10062000FE4FA591B4918FB7F894EC91611124C05D
:1006300030953E233C938FBF0895909180009F7D1D
:10064000E8CF9091B0009F779093B000E4CF909165
:10065000B0009F7DF9CF909190009F77909390008C
:10066000DACF909190009F7DF9CF94B59F7794BD9C
:10067000D2CF94B59F7DFBCF3E2BDCCFCF93DF93C2
:1006800090E0FC01E053FE4F249180559E4FFC0109
:1006900084918823D1F090E0880F991FFC01E456E3
:1006A000FE4FA591B491FC01EA55FE4FC591D4913E
:1006B00061110EC09FB7F8948C91E22FE0958E23C4
:1006C0008C932881E223E8839FBFDF91CF91089527
:1006D0008FB7F894EC91E22BEC938FBFF6CF81307B
:1006E000910539F0880F991F880F991F0597019779
:1006F000F1F708953FB7F8948091483390914933CA
:10070000A0914A33B0914B3326B5A89B05C02F3F2B
:1007100019F00196A11DB11D3FBFBA2FA92F982F27
:100720008827BC01CD01620F711D811D911D42E022
:10073000660F771F881F991F4A95D1F708958F92EA
:100740009F92AF92BF92CF92DF92EF92FF924B01B6
:100750005C010E947A036B017C010E947A036C1990
:100760007D098E099F09683E734081059105A8F3B4
:1007700021E0821A9108A108B10888EEC80E83E032
:10078000D81EE11CF11C81149104A104B10429F7C5
:10079000FF90EF90DF90CF90BF90AF909F908F90A1
:1007A00008952FB7F8946091443370914533809148
:1007B0004633909147332FBF08950F931F93809135
:1007C0002334882361F00E94D10360931F34709317
:1007D00020348093213490932234109223340E9449
:1007E000D10300911F341091203420912134309195
:1007F0002234601B710B820B930B6A3071058105EB
:10080000910538F0129905C080912334811101C0FF
:10081000129A1F910F910895AF92BF92CF92DF92DB
:10082000EF92FF920F931F93CF93DF936C017B01A5
:100830008B01040F151FEB015E01AE18BF08C01736
:10084000D10759F06991D601ED91FC910190F081A9
:10085000E02DC6010995892B79F7C501DF91CF916C
:100860001F910F91FF90EF90DF90CF90BF90AF90CE
:100870000895FC01538D448D252F30E0842F90E0A6
:10088000821B930B541710F0CF960895019708958B
:10089000FC01918D828D981761F0A28DAE0FBF2F54
:1008A000B11D5D968C91928D9F5F9F73928F90E0AA
:1008B00008958FEF9FEF0895FC01918D828D981719
:1008C00031F0828DE80FF11D858D90E008958FEF56
:1008D0009FEF0895FC01918D228D892F90E0805C1F
:1008E0009F4F821B91098F739927089588E195E3A3
:1008F0000E946A0421E0892B09F420E0822F0895E8
:10090000FC01A48DA80FB92FB11DA35ABF4F2C9184
:10091000848D90E001968F739927848FA689B7897B
:100920002C93A089B1898C91837080648C93938D72
:10093000848D981306C00288F389E02D80818F7D15
:1009400080830895EF92FF920F931F93CF93DF93CD
:10095000EC0181E0888F9B8D8C8D98131AC0E889FB
:10096000F989808185FF15C09FB7F894EE89FF89CA
:100970006083E889F98980818370806480839FBF68
:1009800081E090E0DF91CF911F910F91FF90EF9068
:100990000895F62E0B8D10E00F5F1F4F0F73112778
:1009A000E02E8C8D8E110CC00FB607FCFACFE889B3
:1009B000F989808185FFF5CFCE010E948004F1CFB7
:1009C000EB8DEC0FFD2FF11DE35AFF4FF0829FB727
:1009D000F8940B8FEA89FB8980818062CFCFCF9317
:1009E000DF93EC01888D8823B9F0AA89BB89E88957
:1009F000F9898C9185FD03C0808186FD0DC00FB6FD
:100A000007FCF7CF8C9185FFF2CF808185FFEDCF7A
:100A1000CE010E948004E9CFDF91CF91089580E05C
:100A200090E0892B49F080E090E0892B29F00E942A
:100A3000000081110E94000080E090E0892B29F0E5
:100A40000E94760481110C9400000895CF93DF93E7
:100A5000EC0160E08E810E94E20281E090E00E9461
:100A60006F0361E08E810E94E20281E090E00E94CB
:100A70006F0360E08E810E94E20284E690E0DF91E5
:100A8000CF910C946F03CF92DF92EF92FF920F936E
:100A90001F93CF93DF936C017C0187E0E80EF11C7C
:100AA000D0E0C0E0062F10E0B8010C2E02C0759512
:100AB00067950A94E2F76170F70181917F010E94C6
:100AC000E2022196C430D10579F7C601DF91CF91BA
:100AD0001F910F91FF90EF90DF90CF900C9426051F
:100AE000CF92DF92EF92FF920F931F93CF93DF93FA
:100AF000EC01F62E642F8C810E94E2028D818F3FE3
:100B000019F060E00E94E2020F2D10E08F8584FF53
:100B100025C06E0187E0C80ED11CF12CE12CB80174
:100B20000E2C02C0759567950A94E2F76170F60184
:100B300081916F010E94E202FFEFEF1AFF0A88E045
:100B4000E816F10461F7CE01DF91CF911F910F916B
:100B5000FF90EF90DF90CF900C942605B80184E0D1
:100B6000759567958A95E1F7CE010E9443056F2D33
:100B7000CE01DF91CF911F910F91FF90EF90DF9009
:100B8000CF900C94430540E0682F80E394E30C94ED
:100B9000700590914334691710F06FEF690FE62FDD
:100BA000F0E0E05DFB4C9489890F80680C94C305EC
:100BB00081E00E94C30580ED97E00C946F03CF9312
:100BC000DF93823029F490913F34986090933F34C2
:100BD000809343341092443480E48093453480E120
:100BE0008093463480E58093473461E080913434CB
:100BF0000E943E03809135348F3F19F061E00E94DE
:100C00003E0361E0809136340E943E03C0E3D4E3AA
:100C10009E012053344380913F3484FD0BC084E017
:100C200090E021962817390744F461E08E810E94F4
:100C30003E03EECF88E090E0F4CF80E593EC0E9495
:100C40006F0360E0809134340E94E20260E08091A2
:100C500036340E94E202809135348F3F19F060E013
:100C60000E94E20280913F3484FD35C063E080E35E
:100C700094E30E94430584E991E10E946F0363E0DD
:100C800080E394E30E94430584E991E10E946F03AD
:100C900063E080E394E30E94430586E990E00E94CC
:100CA0006F0362E080E394E30E94430580913F3448
:100CB00080620E94C30584E0809340348CE00E94EF
:100CC000C3050E94D80582E08093413486E0DF911D
:100CD000CF910C94C30580620E94C30584E991E121
:100CE0000E946F0380913F3480620E94C30586E9B1
:100CF00090E00E946F0380913F3480620E94C305A0
:100D0000D5CF41E00E94700581E090E008950F93F7
:100D10001F93CF93DF938B0128E0829FC0011124A2
:100D200080640E94C305E801085F1F4F699180E35A
:100D300094E30E948106C017D107C1F7DF91CF91DC
:100D40001F910F91089541E0682F80E394E30E9482
:100D5000700581E090E00895089585ED8093BC00D2
:100D60008091BC0084FDFCCF1092DA330895633487
:100D700098F42091DA33243089F46093E610282F18
:100D8000A4EAB0E1FC018E2F821B861710F080E0F0
:100D9000089581918D93F7CF81E0089582E00895C1
:100DA0000895E0911E3480911D34E81730F4F0E08E
:100DB000E552FC4C808190E008958FEF9FEF0895FD
:100DC00080911D3490911E34891B990B0895CF9208
:100DD000DF92EF92FF920F931F93CF93DF937C01EB
:100DE000CB018A0120914C33222389F0EB016B0166
:100DF000C40ED51ECC15DD0569F06991D701ED91C2
:100E0000FC910190F081E02DC7010995F3CF642F8B
:100E10000E94B706C801DF91CF911F910F91FF90FB
:100E2000EF90DF90CF900895CF93DF931F92CDB7CF
:100E3000DEB7698320914C332223F9F0209191335E
:100E4000223458F021E030E0FC013383228390E02B
:100E500080E00F90DF91CF91089580914D33E82F7E
:100E6000F0E0E25BFC4C998190838F5F80934D337F
:100E70008093913381E090E0ECCF61E0CE01019668
:100E80000E94B706F7CF90E080E0089587FF0AC080
:100E90009CE0980F923030F08D3F21F0803F18F4A5
:100EA000807F089580E00895982F9F7E282F2F7CC3
:100EB000203839F0803E29F081E0903C19F080E044
:100EC000089581E00895DC018D919C91DC01ED9104
:100ED000FC910190F081E02D09941F93CF93DF9353
:100EE0002150203118F587FF21C0D42F162FC82F8D
:100EF000622F682B80917234909173340E94630743
:100F0000612F6F7780917234909173340E946307E0
:100F1000CF7EC03C59F06D2F6F77809172349091E5
:100F20007334DF91CF911F910C946307DF91CF91C0
:100F30001F9108956D3F48F46A3F10F4683F39F4FB
:100F4000FC01808191810C9463076E3FC8F708957E
:100F5000813E10F40C946D07883F28F0682F82E7DB
:100F600094E30C949A07089582E08093B000109265
:100F7000B1001092B20099EF9093B300809370008B
:100F80000895EFE6F0E080818D7F808310928900E4
:100F900010928800109281001092800008958F9224
:100FA0009F92AF92BF92CF92DF92EF92FF920F93F8
:100FB0001F93CF93DF93FC0150E040E0C1E0D0E00D
:100FC000C12CD12C7601C39416A215A28E01042E39
:100FD00002C0000F111F0A94E2F7DC01159670E0C1
:100FE00060E02D913D9120233123232B81F025A119
:100FF00036A146015701062E04C0880C991CAA1C74
:10100000BB1C0A94D2F72829392936A325A36F5F80
:101010007F4F6031710529F74F5F5F4F3296403146
:10102000510591F6DF91CF911F910F91FF90EF90B5
:10103000DF90CF90BF90AF909F908F9008950F93C7
:101040001F93CF93DF93DC018091222E811111C079
:101050008091212E81110DC0FD01E953FE4F808149
:1010600080931E2E8091232E31979081891B80932F
:101070001F2E8D010B551F4FFD01EB5FFE4F84E2CC
:101080004CE62BE630E790E550A1511101C040A39A
:10109000E801288B39938E019193BF01615C71093E
:1010A000EB019883978757AD511101C087AF8F5FD0
:1010B000843351F780911E2E882351F013968C9122
:1010C00013978093CA0E14968C9114978093C90E2F
:1010D00011968C918031A9F038F48C3071F0DF9149
:1010E000CF911F910F910895883121F08032B9F787
:1010F00082E004C010920733F2CF81E0809307337F
:10110000EECF83E0FBCFCF92DF92EF92FF92CF93AF
:10111000DF93FC0181A192A123A134A1822B932B07
:10112000908B87878091340190913501049709F461
:101130004FC0C091360190E080E0C12CD12C7601E7
:10114000C394DCE6A1A1B2A19D01082E02C0369590
:1011500027950A94E2F720FF14C0CE3091F4B7012E
:10116000A601082E04C0440F551F661F771F0A945E
:10117000D2F74095509523A134A12423352334A3DD
:1011800023A323A134A1082E02C0369527950A94E3
:10119000E2F720FF18C0CF30B1F4B701A601082E46
:1011A00004C0440F551F661F771F0A94D2F740955D
:1011B00050954A235B2352A341A3DC01AB5DBE4F94
:1011C000AE0FBF1FDC9301968031910509F0BACFB5
:1011D000DF91CF91FF90EF90DF90CF90089581E065
:1011E0008093092E089581E08093082E089581E070
:1011F0008093072E089580913333813009F449C0DC
:1012000020F0823009F46EC008950E94B407109255
:1012100065341092643410926734109266341092E0
:101220006D3410926C3410926B3410926A341092B8
:101230004F3410924E3410924D3410924C34109220
:10124000810010928000809181008A6080938100EB
:1012500020913A3330913B3340E6429FC001439F97
:10126000900D11246CE370E00E9448499B0150E00E
:1012700040E060E874E88EE190E00E94D948309345
:1012800089002093880080916F00826080936F00B6
:1012900008950E94C1070E94B40783E097E19093EC
:1012A0004F3480934E348CE79FE090934D3480937D
:1012B0004C348BEB95E390936534809364348FEEDC
:1012C00098E0909367348093663483EF98E090932E
:1012D0006D3480936C3487EF98E090936B348093F7
:1012E0006A3408950E94C1071092B00087E080938D
:1012F000B100109270001092653410926434109214
:1013000067341092663410926D3410926C341092DF
:101310006B3410926A3483E097E190934F3480935A
:101320004E348CE79FE090934D3480934C34109270
:101330002D2E10922C2E1092312E1092302E1092B3
:10134000702E08958FE090E00E946F035F9885E013
:1013500090E00E946F035F9A08958FE090E00E94F2
:101360006F035E9885E090E00E946F035E9A089597
:10137000645F282F80E90C946D07645F282F40E09C
:1013800080E80C946D07809188048823C9F010923E
:101390008804E0912B2E4091E93229EC31E0429F04
:1013A000C001439F900D1124895A904DE80FF92FE9
:1013B000F11DEB5BFE4F6081809137330C94BD09CA
:1013C00008950F931F93CF93DF93D0E0C0E0082FD1
:1013D00010E0C017D1072CF481EA0E94A3062196E1
:1013E000F8CFDF91CF911F910F91089523B143B1B1
:1013F000E22FE17020FD10C020918504222361F0CE
:10140000209183043091840441FF27C02F5F3F4F18
:10141000309384042093830420912E33222339F0C7
:101420002AE0AB01249FB001259F700D112440914B
:101430008104509182042091830430918404DA0164
:101440001196A217B30764F43093820420938104A9
:10145000860F971FE0938504089521503109D8CF56
:101460004150510924173507ACF73093820420937B
:101470008104861B970B97FFEDCF90E080E0EACFC9
:10148000EF92FF920F931F93CF93DF9380913401DC
:1014900090913501209136012C3099F583309105DA
:1014A00081F5C091E932D0E089EC91E0C89FF0016C
:1014B000C99FF00DD89FF00D1124E15EFE4C808194
:1014C00061E070E090E00E94F60999278E30910566
:1014D00014F08DE090E029EC31E0C29FF001C39F51
:1014E000F00DD29FF00D1124E15EFE4C808320911F
:1014F00080042817D1F08093800481E08093223308
:1015000066C0019709F0C1C08091342E8111BDC021
:10151000809140338111B9C08091042E813009F44B
:1015200059C050F0823009F480C0DF91CF911F91F3
:101530000F91FF90EF9008958091272E9091282E83
:1015400020912E336AE070E0211102C061E070E06A
:101550000E94F6099093282E8093272E2091C00A8E
:101560003091C10A8091272E9091282E2817390793
:1015700008F4C901883E43E0940710F087EE93E039
:101580009093282E8093272E40917E0450917F04C3
:101590004817590751F290937F0480937E04FC0111
:1015A000E054F94F508150931D2E4091232E21502D
:1015B00031092817390718F457FF40931D2E8091E1
:1015C0001D2E481719F081E08093BF0681E08093BB
:1015D0003701ABCF80911D2E90E020912E3360E13A
:1015E00070E0211102C061E070E00E94F609809372
:1015F0001D2E80911D2E90E08038910514F08FE70C
:1016000090E0282F80931D2E40917C0450917D0402
:101610008417950709F489CF90937D0480937C0407
:101620008091232E2813CFCFD1CF8091C00A9091E3
:10163000C10A20912E336AE070E0211102C061E0FE
:1016400070E00E94F6099093C10A8093C00A8091CD
:10165000C00A9091C10A883EE3E09E0710F087EE31
:1016600093E09093C10A8093C00A20917A0430914C
:101670007B048217930709F458CF90937B048093DF
:101680007A0481E08093422EA2CF80913033882368
:1016900009F49CC08091042E813009F446C0F8F012
:1016A000833009F042CF8091320161E070E090E038
:1016B0000E94F60999278830910514F087E090E0A0
:1016C000809332012091740430917504821793073E
:1016D00009F42BCF909375048093740477CF809195
:1016E000EA3290E020912E336AE070E0211102C0CE
:1016F00061E070E00E94F6098093EA328091EA325C
:1017000090E08436910514F083E690E08093EA320D
:1017100020917804309179048217930709F405CF5A
:10172000909379048093780451CFE090E932F12CC2
:10173000C091EA32D0E089EC91E0E89E8001E99E18
:10174000100DF89E100D11240C0F1D1F04561F4C78
:10175000F801808190E020912E336CE070E021113F
:1017600002C061E070E00E94F609F801808389EC14
:1017700091E0E89EF001E99EF00DF89EF00D112435
:10178000EC0FFD1FE456FF4C808190E080389105FE
:1017900014F08FE790E049EC51E0E49E9001E59E63
:1017A000300DF49E300D1124C20FD31FC456DF4CF0
:1017B000888320917604309177048217930709F487
:1017C000B4CE909377048093760497CE8091403383
:1017D000882309F4FCC080913F33813009F080C038
:1017E0009091042E913009F444C038F1923009F4FC
:1017F00064C0933009F099CE8091363361E070E097
:1018000090E00E94F6099927009709F466C081319B
:10181000910514F080E190E08093363320916D04BF
:1018200030916E048217930709F47FCE90936E0473
:1018300080936D04809374343EC08091333361E0B3
:1018400070E090E00E94F60999278330910514F02A
:1018500082E090E08093333320917304281709F4D9
:1018600064CE8093730481E080933433809341335A
:10187000AECE61E070E080913C3390913D330E94A8
:10188000F6098B3F910510F08AEF90E08E319105BB
:1018900010F48EE190E090933D3380933C3320919F
:1018A0007104309172048217930709F43ECE90932D
:1018B00072048093710481E0D9CF2091353330E0F8
:1018C00040916F04509170042417350709F42DCE10
:1018D0003093700420936F04C9CF81E090E09CCFD7
:1018E000823009F022CE8091042E8130D1F120F196
:1018F000823009F44BC0833009F017CE61E070E00C
:1019000080913833909139330E94F60985309105E2
:1019100010F084E090E09093393380933833209135
:101920006704309168048217930709F4FECD909301
:10193000680480936704BFCF8091323361E070E028
:1019400090E00E94F60921E0892B09F420E0209321
:10195000323380916C04281709F4E7CD20936C048E
:10196000AACF8091423361E070E090E00E94F609D6
:1019700021E0892B09F420E02093423380916B040D
:10198000281709F4D2CD20936B0495CF809137337B
:1019900061E070E090E00E94F60999270097A1F0BD
:1019A0008131910514F080E190E0809337332091EC
:1019B000690430916A048217930709F4B6CD9093B5
:1019C0006A048093690477CF81E090E0EECF61E014
:1019D00070E080913A3390913B330E94F6098F3149
:1019E000910508F444C090933B3380933A3380913F
:1019F0003A3390913B338A3F910530F08AEF90E083
:101A000090933B3380933A3320913A3330913B3378
:101A100080916504909166042817390709F485CDF3
:101A2000309366042093650440E6429FC001439FC3
:101A3000900D11246CE370E00E9448499B0150E036
:101A400040E060E874E88EE190E00E94D94830936D
:101A5000890020938800809134019091350103978B
:101A600009F0B4CD8091342E8111B0CD5ECD8EE1E0
:101A700090E0B9CFCF92DF92EF92FF926B017C01A1
:101A8000C114D10481E0E806F104D8F480E591E0C6
:101A900090934C338093903310924D331092913346
:101AA00099278F2D7E2D6D2D84E294E30E941407DB
:101AB0006C2D84E294E3FF90EF90DF90CF900C9434
:101AC000140784E5E4CFAF92BF92CF92DF92EF92FA
:101AD000FF921F93CF93DF93C0ECD6E090E0B0E08D
:101AE000A0E06C017D018AE0CC0CDD1CEE1CFF1C2B
:101AF0008A95D1F780EED80EE11CF11CEAE0C03CDB
:101B0000DE0719F1C701B6010E943A0D0E94FA01E1
:101B100084E590E0C114D104F1E0EF06F10410F483
:101B200080E590E00E9499015E0110E40E94480166
:101B3000F50181935F011150C9F7C05CDF4FF0E4FC
:101B4000CF0ED11CE11CF11CD9CF8091BE0A90911F
:101B5000BF0A9093C10A8093C00ADF91CF911F9171
:101B6000FF90EF90DF90CF90BF90AF90089540919D
:101B70007C2E50917D2E90E080E020E0BA01082E6E
:101B800002C0769567950A94E2F760FF03C02130A2
:101B900031F021E001968031910581F780E00895D0
:101BA00020917C2E30917D2E90E080E0A901082EBE
:101BB00002C0569547950A94E2F740FD04C001968D
:101BC0008031910599F70895CF92DF92EF92FF92BD
:101BD0000F931F93CF93DF93E0914B04F0914C044C
:101BE00060917C2E70917D2E70934C0460934B0419
:101BF000E617F70709F464C080913F2E9091402EBC
:101C00002091152E3091162EF09042334091402FA6
:101C100050E0442309F462C040E0C1E0D0E00CEFA2
:101C200011E0DB01042E02C0B695A7950A94E2F7F5
:101C3000A0FF38C0DF01042E02C0B695A7950A9414
:101C4000E2F7A0FD2FC0DA01A451BE4FEC909E0137
:101C50000E2C02C0220F331F0A94E2F72095309514
:101C600082239323ACEEB1E02D91E21649F06E0190
:101C700002C0CC0CDD1C2A95E2F796018C29932B2F
:101C80000A171B0789F7DA01AA0FBB1FA453BE4F1F
:101C90002D913C9120953095FF2021F04C30C9F4D6
:101CA0009F773F7D4F5F5F4F4031510509F0B9CFBE
:101CB0009093402E80933F2E3093162E2093152E16
:101CC000DF91CF911F910F91FF90EF90DF90CF9018
:101CD00008954D3039F79F7B3F7EE4CF40E001E02F
:101CE00010E0DB01042E02C0B695A7950A94E2F736
:101CF000A0FF27C0DF01042E02C0B695A7950A9465
:101D0000E2F7A0FD1EC0DA01A451BE4FAC916801FC
:101D100002C0CC0CDD1CAA95E2F7D6018C259B27CE
:101D2000DA01AA0FBB1FA453BE4F0D90BC91A02D8A
:101D30002A273B27FF2029F04C3049F49058A0E295
:101D40003A274F5F5F4F4031510559F6B1CF4D30C3
:101D5000C1F7A0E49A27A0E13A27F3CFFC0114824F
:101D6000138281E06115710509F480E0808391811F
:101D7000891741F09281911107C0672B11F091E012
:101D80009383828381830895672BD9F791E09483AD
:101D9000F8CF90912C11992339F080914A04913019
:101DA00011F48DBB08958FBF08958EBD00000DB452
:101DB00007FEFDCF8EB5089520912C11222359F0F6
:101DC000213061F42DB320934A043DB320912B11AF
:101DD000209523232DBB8CBD9DBD08952FB7F8946E
:101DE00020934A04F8CFCF93DF93803808F08FE731
:101DF00090E2899FE0011124D0618091B7359091E4
:101E0000B8350E94DC0E5D988D2F0E94D50E8C2F68
:101E10000E94D50E5D9ADF91CF910C94C90EEEEF22
:101E2000E80FEE3008F052C0862FF0E0E65EF04F8B
:101E30000C947049410F470F4F0F660F5A0F600FF8
:101E4000280F300F360F3B0F660F660F540F540FDD
:101E50000E94F30E82B18F71806482B90C94AD0937
:101E60000E94F30E82B18F718068F7CF0E94F30E4B
:101E700082B18F71F2CF0E94F30E82B18F71806CAC
:101E8000ECCF0E94F30E82B18F718062E6CF0E9488
:101E9000F30E82B18F71806882B90C94A2090E94FE
:101EA000F30E82B18F71F8CF0E94F30E82B18F7161
:101EB0008064F2CF0E94F30E82B18F718062ECCF0A
:101EC0000E94F30E82B18F71806CE6CF0895E82FE7
:101ED000F0E0E757FB4F10822091052E3091062E3F
:101EE000082E02C0369527950A94E2F720FF03C01A
:101EF00060E00C940F0F08959091363398133EC014
:101F00006452693108F03AC0E62FF0E0E657F04F2E
:101F10000C947049A30FAE0FBE0FB00FA60FBE0FEB
:101F2000B20FBE0FBE0FA80FB40FAA0FAC0FB60FA3
:101F3000BE0FB80FBE0FBE0FBE0FBE0FBE0FBE0F3F
:101F4000BE0FBE0FBA0F88E00C94670F89E0FCCF7C
:101F50008AE0FACF8BE0F8CF82E0F6CF83E0F4CFCF
:101F600084E0F2CF8EE0F0CF8FE0EECF87E0ECCFD1
:101F700086E0EACF8091052E80FD129A0895CF93D6
:101F8000DF93EC018091B7359091B8350E94DC0E5B
:101F90002B988D2F0E94D50E8C2F0E94D50E2B9A38
:101FA0000E94C90EC093D92DDF91CF910895EF9271
:101FB000FF920F931F93CF9390913333923009F098
:101FC00041C0E82EF12C870107571B4FF801908183
:101FD000911138C020913F2E3091402E082E02C022
:101FE000369527950A94E2F720FD2CC0C82F0E9451
:101FF0000F0FCF3069F58091D92D90E08D7D8062F3
:102000000E94BF0F8091B2008093CE2D8091ED2D64
:102010008823A9F0F701E957FE4F208181E090E085
:1020200002C0880F991F2A95E2F72091E92D30917F
:10203000EA2D822B932B90932D2E80932C2E81E0D2
:10204000F8018083CF911F910F91FF90EF90089539
:10205000CE3029F48091D92D826290E0D1CF2091A9
:10206000D92D81E090E00E2C02C0880F991F0A94B0
:10207000E2F7822B0E94BF0F8091B200F701E75375
:10208000F24D8083C3CFFF920F931F93CF93DF93C3
:10209000082FF92ED62F172FC42F8091B735909186
:1020A000B8350E94DC0E2C988F2D0E94D50E802F03
:1020B0000E94D50E812F0E94D50E8D2F0E94D50E25
:1020C0008C2F0E94D50E2C9ADF91CF911F910F91EA
:1020D000FF900C94C90E0F931F930E94D10300919F
:1020E0006104109162042091630430916404601BC8
:1020F000710B820B930B663071058105910508F415
:102100004BC00E94D103609361047093620480937A
:102110006304909364048091B7359091B8350E9420
:10212000DC0E5C9A80E00E94D50E8093570480E01C
:102130000E94D50E8093590480E00E94D50E8093B2
:102140005B0480E00E94D50E80935D0480E00E94D5
:10215000D50E80935F045C980E94C90E83B182FB08
:10216000882780F980935504E7E5F4E030E020E02B
:1021700090814181941304C0D901A458B14D9C931E
:102180002F5F3F4F32962530310591F790915604DD
:10219000891302C08093DD2D8091B7359091B835B9
:1021A0000E94DC0E5C9A80E00E94D50E8093580459
:1021B00080E00E94D50E80935A0480E00E94D50EE4
:1021C00080935C0480E00E94D50E80935E0480E0E2
:1021D0000E94D50E809360045C980E94C90E83B162
:1021E00082FB882780F9809356041F910F910895F0
:1021F0008F929F92AF92BF920F931F93CF93DF93D3
:10220000CDB7DEB7A1970FB6F894DEBF0FBECDBF36
:1022100019A2423008F44AE08E010F5D1F4F842E50
:10222000912CB12CA12CA50194010E940B49E62F01
:10223000B901CA01EA3044F5E05DD801EE938D01A1
:10224000232B242B252B79F790E080E0109769F061
:10225000FD0101900020E9F73197AF014A1B5B0BAC
:10226000BD0180E394E30E940C04A1960FB6F8949C
:10227000DEBF0FBECDBFDF91CF911F910F91BF90F9
:10228000AF909F908F900895E95CD7CF009769F049
:10229000FC0101900020E9F73197AF01481B590B71
:1022A000BC0180E394E30C940C0490E080E008957A
:1022B00060E084E00E94C9058CE392E00C94461132
:1022C00080913433882321F00E94FB08109234332C
:1022D00080914133882309F44CC08091F12D8823EB
:1022E00009F447C080913F33833009F442C060E075
:1022F00070E281E090E00E943A0D6091333384E215
:1023000094E30E94140760913C3384E294E30E94BA
:1023100014076091353384E294E30E9414076091BE
:10232000363384E294E30E9414076091323384E2EE
:1023300094E30E9414076091423384E294E30E9484
:1023400014076091373384E294E30E94140760918C
:10235000383384E294E30E9414070E94FA0165E096
:1023600070E080E090E00E949F03109241330E9451
:10237000581180914033882309F455C080913F3330
:10238000833009F052C080910D2E882309F44DC08E
:102390000E94D80560E080E00E94C90585E492E0D3
:1023A0000E94461161E080E00E94C90586E592E046
:1023B0000E94461168EE73E080E090E00E949F0367
:1023C00090E080E00E94BF0F40E070E060E090E0AD
:1023D00080E00E9443100E94A10110928234F89480
:1023E0000C9400F80C9400FC0C9400FE0C9400FF7C
:1023F0006FEF73E080E090E00E943A0D60EB84E2C2
:1024000094E30E9414070E94FA0165E070E080E006
:1024100090E00E949F0314BE88E18093600088E0F2
:1024200080936000FFCF10924133089587E692E0D9
:102430000C944611CF92DF92EF92FF920F931F936D
:10244000CF93DF930E946B10C0917E2ED0917F2E90
:102450001091802E81E00C2F0071C4FF80E08093EA
:102460002E33C3FB882780F98093402F6C2F647034
:1024700070E081E49FE20E94AE0E6D2F687070E004
:1024800080EB96E00E94AE0E6D2F607870E084EADB
:1024900096E00E94AE0E6D2F607470E083E69EE2BF
:1024A0000E94AE0E6D2F607270E084E59EE20E9485
:1024B000AE0E6C2F607870E089EF9DE20E94AE0E48
:1024C0006C2F617070E08CE093E30E94AE0E6D2F74
:1024D000607170E083E293E30E94AE0E6C2F627035
:1024E00070E081E093E30E94AE0E6C2F607470E0A8
:1024F00086EF92E30E94AE0EC0726C2F70E081E70F
:102500009EE20E94AE0E6D2F647070E08BEE92E33F
:102510000E94AE0E6D2F627070E08CE49FE20E940C
:10252000AE0E612F647070E082E39EE20E94AE0EF8
:102530006D2F617070E087E193E30E94AE0E612F12
:10254000627070E08EED9DE20E94AE0E612F6170B0
:1025500070E086E49EE20E94AE0E6091DD2D70E098
:102560008AE09EE20E94AE0E60917C2E70917D2EDC
:1025700081E89EE20E94AE0E1092F22D1092F12D93
:10258000C1E0812F887013FFC0E0C093EE2D9091C1
:10259000EF2DC917A9F09091F02D911182C08823D9
:1025A00069F081E08093F12D0E94D1036093F52DB5
:1025B0007093F62D8093F72D9093F82DC093F02D06
:1025C000C093EF2D8091F02D8823B1F00E94D103AC
:1025D000C090F52DD090F62DE090F72DF090F82DCD
:1025E0006C197D098E099F09693E7340810591052B
:1025F00018F081E08093F32D002371F18091263350
:10260000882351F180912F33C1E08C2780932F33A1
:1026100010928D2E882391F18DE0809336010E94D7
:10262000D80560E080E00E94C90588E792E00E943A
:10263000461161E080E00E94C90589E892E00E94AD
:10264000461184E280938C2E68EE73E080E090E087
:102650000E949F03C0933701EEE8FEE213821482CA
:102660003B968FE2EE33F807C9F7DF91CF911F91C8
:102670000F91FF90EF90DF90CF9008950E94D805C2
:1026800060E080E00E94C90582E992E00E94461164
:1026900061E080E00E94C90580EA92E00E94461154
:1026A000D3CF81118BCF81E08093F22D1092F32D47
:1026B00085CFEF92FF921F93CF93DF93D091743425
:1026C000D13140F010E0812FDF91CF911F91FF9029
:1026D000EF900895E0917234F0917334808191818C
:1026E000DC01ED91FC910084F185E02D0995892BA9
:1026F00049F3809117358E7F80931735E0917234BE
:10270000F091733480819181DC01ED91FC91028420
:10271000F385E02D0995C82F8D3FA1F280917C347F
:1027200090917D34009709F0F7C0C09377341091F1
:102730007534812F0E9446070E945407882361F058
:10274000C7FD0AC010937734C093783481E090E0DD
:1027500090937D3480937C34C09177348C2F0E9489
:102760004607813F09F4A1C0C8F5803B39F048F421
:10277000803921F0803A11F0803851F423E030E0C4
:1027800096C0803D09F491C0D0F4803C09F48DC01E
:1027900080911735816080931735E0914A34F0912C
:1027A0004B34309709F0099510927D3410927C34A7
:1027B00010927B3410927A341092753483CF803E1D
:1027C000E9F2803F29F720E830E030937B34209312
:1027D0007A3410927534809387346DC0873F99F3B3
:1027E00008F05CC0833F09F460C040F2863F81F688
:1027F00080938434109283341092853410928634FE
:1028000081E08093073510927D3410927C341092D1
:102810007B3410927A3480918434803939F48091F9
:102820008634811103C080E880938434809184349D
:102830008058813638F480918334D81719F010E02D
:10284000D11103C00E94FC0111E090918234392F14
:10285000317090FF38CF892F8E7F09F434CF80916B
:10286000843420E8280F213608F02AC120918334CF
:10287000D21719F031E0D11130E09695923009F479
:1028800018C1933009F419C1913009F01CCF40915F
:102890008634609185340E94A80715CF8D3F08F4D7
:1028A000A7CF8E3F08F0A4CF73CF22E030E0309363
:1028B0007B3420937A3420917C3430917D34409164
:1028C0007A3450917B344150510924173507E8F090
:1028D00080938434CF70CF5FC093833480917834F9
:1028E000809385341092863481E090E0909309358E
:1028F0008093083510927D3410927C3410927B3492
:1029000010927A348093073586CF2F5F3F4F3093F4
:102910007D3420937C34D6CEC7FF0CC0CD3F08F069
:102920004BC0C83F08F04BC0C03F09F457C0C73F79
:1029300009F454C020917734FC01E85BFB4C203F44
:1029400019F0273F09F073C0C7AFE0907A34F090D8
:102950007B349701215031098217930708F4A7C0EF
:1029600010917734103F19F0173F09F062C0C09101
:10297000063580EF809306358093843480E8809319
:102980008534109286341092833480E890E09093DE
:1029900009358093083581E0809307350E94FC015A
:1029A00087EF80938734C093883482E090E09093DF
:1029B0007D3480937C3486CECE3F08F4BBCFC09369
:1029C000843410928534109286341092833481E0DE
:1029D00090E0909309358093083594CF2091873407
:1029E000203F19F0273F09F0D3CE9C012F5F3F4FC6
:1029F000885B9B4CFC01C7AF80EF809384342093AD
:102A00008534309386341092833430930935209383
:102A1000083581E08093073510927D3410927C3424
:102A200010927B3410927A3410927534F4CEC7A78A
:102A30008CCF812F0E944607C82F809384340E9438
:102A40005407882349F1812F8F708F5F80938334DF
:102A5000809178348093853480917934F3E0EF1657
:102A6000F10409F080E08093863410927D34109256
:102A70007C3410927B3410927A3481E08093073555
:102A8000C03B39F060F4C03921F0C03A11F0C038D1
:102A900059F610937534BFCE10928334D9CFC03D10
:102AA000C1F3C03EB1F3C03C09F0BECFF2CF0196F6
:102AB0007ECF332309F407CEEACE311104CEE7CE20
:102AC000E0E1E80FE03108F0FECDF0E0E659FA4E23
:102AD0000C9470498015CD15AF159D1563136313C4
:102AE0007A1563137A1563137A157A157A156313B9
:102AF0007A157A15682F82E794E30E949A07E3CD4E
:102B0000E0908534F090863481E8E816F10418F0FE
:102B100090E8E92EF12CC8E4D4E3CE018854944324
:102B20008E159F0508F0CFCD6FAD809172349091D6
:102B300073340E9463072196F0CFC091853463EF10
:102B400080917234909173340E9463076C2F6F7779
:102B500080917234909173340E946307B4CDC09118
:102B60008634A0E8CA9FE001112480918534C82BE7
:102B700062EF80917234909173340E9463076C2FDE
:102B80006F7780917234909173340E946307CC0FF9
:102B9000CD2FCC1FDD0BD195D9CF60918534B0E11D
:102BA0006B9FB00111246077C0918634CF70C62B23
:102BB00061EF80917234909173340E9463076C2F9F
:102BC000C7CF2F923F924F925F926F927F928F92D8
:102BD0009F92AF92BF92CF92DF92EF92FF920F93AC
:102BE0001F93CF93DF9300D000D01F92CDB7DEB7F5
:102BF000883008F087E08295807F282F30E0A0ECB5
:102C0000B1E00E942D496B017C0183E3682E81E1D4
:102C1000782E8BEC9EE09B838A83C701B6010E94CD
:102C20003A0D0E94FA0180E590E00E94990100EEC1
:102C30001EE0EBEDFEE0FD83EC830E944801B82E20
:102C40000E944801382E212CC1018B29F801819363
:102C500091938F01FFE000301F0779F70E94480130
:102C60008093DB0E0E9448018093DC0E0E94480195
:102C70008093DE0E8093CA0E0E9448018093DF0E7F
:102C80008093C90E0E9448018093A0100E944801C1
:102C90008093A1100E9448018093A2100E944801D5
:102CA0008093A31008E110E00E944801015011092F
:102CB000D9F70E945913C701B601605C7F4F8F4F4F
:102CC0009F4F0E943A0D0E94FA0180E590E00E9419
:102CD000990100E210E10E944801F80181938F01FF
:102CE000F0E100361F07B9F70E945913C701B6017A
:102CF00060587F4F8F4F9F4F0E943A0D0E94FA01FC
:102D000080E590E00E94990100E610E10E944801F0
:102D1000F80181938F01F0E1003A1F07B9F74601EE
:102D2000570120EC820E911CA11CB11C0E9459136A
:102D3000C501B4010E943A0D0E94FA0180E590E0BD
:102D40000E9499014C805D8084E0898310E000E05E
:102D50000E944801F801EB5BFF4FE40DF51D8083F5
:102D60000F5F1F4F0031110599F799819150998399
:102D7000E0E14E0E511C9111E9CFF0E48F0E911C51
:102D8000A11CB11C8C819D81805C9F4F9D838C8395
:102D90008B5D9F4059F689EC91E0EBEDFEE0D301AD
:102DA00001900D920197E1F7EA81FB811192FB837B
:102DB000EA83F0ECCF0EF1E0DF1EE11CF11C27E30B
:102DC000621A2EEF720A83EC68168DE2780609F01B
:102DD00024CF1092432E0F900F900F900F900F90D2
:102DE000DF91CF911F910F91FF90EF90DF90CF90E7
:102DF000BF90AF909F908F907F906F905F904F901B
:102E00003F902F900895962F642F442309F47EC09D
:102E10002091363328137EC09F3251F1A0F49832AE
:102E200019F150F4953241F1973241F1943209F0A1
:102E300071C088E00C94D70F9D32C1F008F58EE088
:102E40009A32C1F308959C33F9F038F49133D1F0FC
:102E500088F086E0933371F308959534B8F088EBE9
:102E6000890F8031A0F1089589E0E4CF8AE0E2CFB4
:102E70008BE0E0CF82E0DECF83E0DCCF84E0DACF0E
:102E80008FE0D8CF87E0D6CF129A089520913401F1
:102E90003091350122303105E9F583EC890F8093BB
:102EA000242E2091232E982F9295907F322F3F70C1
:102EB000930F90931D2E291769F10E94E11581E06F
:102EC0008093BF068093370110921E2E08952091A3
:102ED00034013091350122303105E1F46091242E26
:102EE0006295607F6854960F90931D2E8091232EDB
:102EF000981781F09093232E81E08093BF068093F2
:102F0000370110921E2E1092222E089540E0692F54
:102F10000C947C0F0895CF92DF92EF92FF92CF93A3
:102F2000DF936C01990FEE08FF08F7FE17C08DE2E2
:102F30000E94A306EC0166277727CB016C197D0957
:102F40008E099F094AE00E94F8108C0F9D1FDF91A7
:102F5000CF91FF90EF90DF90CF9008954AE0C701A6
:102F6000B601DF91CF91FF90EF90DF90CF900C945E
:102F7000F81065E080E394E30E94810689EA92E01C
:102F80000E9446118091333381110DC060913A3314
:102F900070913B3390E080E04AE00E94F81085E7B2
:102FA00092E00C9446118BED0E94A3068BED0E94DB
:102FB000A3068BED0E94A306F2CF2F923F924F9271
:102FC0005F926F927F928F929F92AF92BF92CF92B9
:102FD000DF92EF92FF920F931F93CF93DF93CDB7C2
:102FE000DEB72F970FB6F894DEBF0FBECDBF80912E
:102FF0007C2E90917D2E90933F2F80933E2F909129
:103000003133992349F080914033882329F010927D
:10301000403381E0809337012091340130913501B4
:103020002530310511F01092E42D8091403381114B
:1030300002C010923F3380910D2E882359F0809169
:10304000042E8F5F843008F074C18093042E81E0D9
:10305000809337018091FC2D882311F0992341F052
:103060008091092E811104C08091072E882309F1D7
:103070008091232E87FD1DC01092321181E0809334
:103080003133109233018093C80E10921233809323
:10309000C70E1092C60E1092C50E1092310180918B
:1030A0003333811105C06AEF82E794E30E949A07E7
:1030B000109A80910F33882321F080912E3388233A
:1030C00041F08091082E811104C08091232E87FF4A
:1030D0004FC00E94C3092091353340E06BE780EB7D
:1030E0000E946D078091082E882309F425C1109253
:1030F0001233809112338F5F809312338130C1F588
:1031000080933301109231338091340190913501D5
:10311000029710F01092123380913333811105C061
:103120006CEF82E794E30E949A0710988091311126
:103130008091C40E109231111092C40E1092202E64
:103140001092282E1092272E8091340190913501F3
:10315000892B09F0FAC08091C00680931D2E9091B2
:10316000232E80911D2E981719F081E08093BF06C1
:103170008091C80E882339F11092C80E80913401D5
:1031800090913501009741F02091BD063091BE0627
:10319000232B69F4059759F48091272E9091282EBE
:1031A0008093BC0601969093282E8093272E8091C1
:1031B0001E2E882329F08091202E8F5F8093202E51
:1031C00081E08093BB062091B3063091402F90910F
:1031D000A7068091662E332309F48DC12223E9F0DE
:1031E00021E02093370141E050E0509335014093B6
:1031F00034011092282E1092272E10923033109204
:1032000040333091C00630931D2E4091232E34134D
:103210002093BF0621E02093AF069923C9F0909137
:10322000232E97FD10921D2E20911D2E921719F01E
:1032300091E09093BF0691E09093370123E030E056
:103240003093350120933401109240331092422E76
:103250008823D9F08091232E87FD10921D2E909106
:103260001D2E891719F081E08093BF0684E090E05D
:10327000909335018093340181E08093370110925F
:103280003033109240331092422E8091492E882381
:1032900009F48AC02091E93230E0E7EAF4E089ECF1
:1032A00091E0289FA001299F500D389F500D1124B7
:1032B000495A504D90E080E0DA01A80FB91F1596E9
:1032C0006D917C9161937193029680329105A1F783
:1032D00089EC91E0289FF001299FF00D389FF00DB7
:1032E0001124E95AF04D80818093A204818180935A
:1032F000A30483818093A50484818093A604DF01C5
:10330000AB53BE4F6C9160936706E853FE4F8081CC
:1033100080936A06A7EEB5E090E080E08617E8F4B7
:10332000FC01EB5BFE4FE40FF51F70817D9301966E
:10333000F5CF1092042E8BCE8091072E882309F4AE
:10334000D8CE81E080931233D4CE80911E2E882374
:1033500009F405CF80911F2E00CF49EC51E0249F46
:10336000C001259F900D349F900D1124895A904DD6
:1033700022EA34E002EA15E050E040E0BA016B5B7B
:103380007F4FD901A60FB71F680F791FFB0160811E
:103390006C934F5F5F4F4031510581F74096205F3E
:1033A0003F4F0217130741F78091E12D882309F45D
:1033B0007AC04091E93250E0E7EAF4E089EC91E02C
:1033C000489F9001499F300D589F300D1124295A74
:1033D000304D90E080E061917191D901A80FB91F43
:1033E00016967C936E93159702968032910599F705
:1033F00089EC91E0489FF001499FF00D589FF00D36
:103400001124E95AF04D8091A20480838091A30495
:1034100081838091A50483838091A6048483609135
:103420006706DF01AB53BE4F6C93E853FE4F8091AC
:103430006A068083A7EEB5E090E080E0861748F446
:103440007D91FC01EB5BFE4FE20FF31F7083019651
:10345000F5CF22EA34E069EC71E0469FC001479F56
:10346000900D569F900D1124895A904D02EA15E057
:1034700050E040E0BA016B5B7F4FDC01A60FB71F45
:10348000620F731FFB0160816C934F5F5F4F403190
:10349000510581F7205F3F4F40960217130741F710
:1034A00081E0809322338091352E882309F490C2E5
:1034B0008091313381118CC28091403381110DC0D4
:1034C00081E0809340331092303380933F331092E9
:1034D000042E81E0809337017BC280913F3381309D
:1034E00011F482E0F2CF823011F483E0EECF83302A
:1034F00071F781E0EACF2223E1F0109235011092BA
:10350000340121E020933701109230331092403380
:10351000E091272EF091282EE054F94F308130931E
:103520001D2E4091232E34132093BF0621E02093BB
:10353000AF06992319F19091232E97FD10921D2E1D
:1035400020911D2E921719F091E09093BF062091C3
:103550003401309135012230310509F039C123E0C1
:1035600030E0309335012093340191E0909337019E
:1035700010923033109240331092422E882309F477
:103580006AC081E0809322332091E93230E080915B
:103590002E33811125C189EC91E0289FB001299F2C
:1035A000700D389F700D1124DB01A95AB04DAD018B
:1035B00087E39EEF289F5001299FB00C389FB00CE5
:1035C000112490E080E01596ED91FC9116979F01F3
:1035D00036952795E0FFFFC0306816963C932E93F2
:1035E0001597FA01EA0DFB1D8F01060F171F9C01AD
:1035F00024503E4FF90120817801F5E4EF0EF11CD3
:10360000F70130810C5A1F4F231728F49C012455D1
:103610003E4FF9012081F8012083D12CC12CFFEF0E
:10362000CF1ADF0A9A012C0D3D1D790105E4E00E49
:10363000F11CF70100812C5B3F4FF9010083FFE093
:10364000CF16D10461F701961296405F5F4F80312B
:10365000910509F0B8CF8091572E882309F46AC0EC
:1036600081E0809322332091E93230E080912E3343
:10367000811121C189EC91E0289FB001299F700D33
:10368000389F700D1124DB01A95AB04DAD0187E3BD
:103690009EEF289F5001299FB00C389FB00C112439
:1036A00090E080E01596ED91FC9116979F01220F16
:1036B000331FF7FFFBC0216016963C932E9315979E
:1036C000FA01EA0DFB1D8F01060F171F9C01245004
:1036D0003E4FF90120817801F4E5EF0EF11CF7016E
:1036E00030810B5B1F4F231728F49C0124553E4F5C
:1036F000F9012081F80120832FE0C22ED12CF1E0C6
:10370000CF1AD1089A012C0D3D1D790105E4E00E78
:10371000F11CF70100812A5B3F4FF9010083C114BE
:10372000D10469F701961296405F5F4F8031910591
:1037300009F0B8CF809126338823B1F080912933E6
:103740008F5F80932933813009F41BC1823009F4E3
:103750001BC18091A306882309F41BC181E191E17B
:1037600090939A04809399048091E12D882391F09D
:1037700020913401309135012130310559F080918B
:10378000E42D8F5F8093E42D813009F407C18230EE
:1037900009F40FC18091340190913501059711F022
:1037A0001092E42D80914033811102C010923F337A
:1037B0008091352E882309F407C18091313381111E
:1037C00003C11092403310923F330E94FB0881CE18
:1037D00022E030E0C6CE16963C932E9315971DCF6F
:1037E0008091360190E0DC01AA0FBB1F49EC51E04B
:1037F000249FB001259F700D349F700D1124A60FDA
:10380000B71FA95AB04D1596ED91FC911697AF01CF
:1038100056954795E0FF45C0506816965C934E93C9
:103820001597FC01E450FE4F4081FC0154E0EE0F7F
:10383000FF1F5A95E1F7E60FF71FE95AF04DDF0138
:10384000AB5BBF4F5C91EC5AFF4F451720F4DC0196
:10385000A455BE4F4C91408369EC71E0269FA001B6
:10386000279F500D369F500D112404E0880F991F9B
:103870000A95E1F7840F951F50E040E04F5F5F4FDE
:103880009A01280F391F295A304DF901EB5BFF4F80
:1038900060812C5B3F4FD9016C934F30510571F71C
:1038A000DACE16965C934E931597D6CF16963C9328
:1038B0002E93159721CF8091360190E0DC01AA0F5D
:1038C000BB1F49EC51E0249FB001259F700D349F30
:1038D000700D1124A60FB71FA95AB04D1596ED9182
:1038E000FC911697AF01440F551FF7FF45C041608B
:1038F00016965C934E931597FC01E450FE4F408161
:10390000FC01B4E0EE0FFF1FBA95E1F7E60FF71FD9
:10391000E95AF04DDF01AC5ABF4F5C91EB5BFF4FB2
:10392000451720F4DC01A455BE4F4C91408369EC4F
:1039300071E0269FA001279F500D369F500D112446
:10394000A4E0880F991FAA95E1F7840F951F4FE017
:1039500050E0415051099A01280F391F295A304D22
:10396000F901EB5BFF4F60812A5B3F4FD9016C93FC
:103970004115510571F7DECE16965C934E9315975F
:10398000D6CF8093A306E5CE1092A30610922933DA
:10399000E0CE10929A0410929904E6CE3093BE06BF
:1039A0002093BD0685E090E090933501809334012B
:1039B000F1CE8091BD069091BE0690933501809323
:1039C00034011092E42DE6CE8091362E811181CD06
:1039D00080913401909135018230910560F0059716
:1039E00051F08091AF06882331F08091242E0E94FF
:1039F000E1151092AF06E0903401F0903501C70157
:103A00000397029708F0ADC6D0902F33DD2051F018
:103A1000809136018D3031F08DE08093360181E068
:103A20008093370100913E2F10913F2F0115110512
:103A300011F41092A206B0912E33B983BB2309F47E
:103A40006DC00115110509F469C0D11067C08091DE
:103A50008D2E811163C081E08093A10610923033D6
:103A60000E94D00D803108F04BC0E82FF0E0E55CFB
:103A7000F24E0C9470494B1D4B1D551D551D571D85
:103A8000571D591D591D5B1D5B1D5D1D611D631D6E
:103A9000631D7E1D7C1D88E0809336018091A20607
:103AA00081111AC010921B2E17C089E0F5CF8AE051
:103AB000F3CF8BE0F1CF82E0EFCF83E0809336014C
:103AC000F1CF84E0FBCF10921B2E8091A2068111D2
:103AD00003C08EE0809336010033110509F4C0C2A3
:103AE00010F00C94C72D0330110509F4B9C20C3045
:103AF000110509F4B5C216C086E0E0CF87E0DECF3D
:103B00000033110509F4ACC208F09EC20330110560
:103B100009F4A6C20C30110509F4A2C28091A106D5
:103B2000882349F08091852E882329F081E08093B5
:103B300037011092A10629812223D9F08091F12D1D
:103B4000882351F0D11008C08CE080933601109288
:103B50001B2E81E08093370180910F33882349F039
:103B6000D11007C01092360110921B2E81E0809375
:103B700037014091402F442371F0809126338823F0
:103B800051F0D11008C08DE08093360110921B2EA9
:103B900081E0809337018091432F882309F479C015
:103BA00080913033811175C034E0E316F10409F4DB
:103BB00070C080913133882309F46BC060913F2E2F
:103BC0007091402E8091442F882321F07093A0069D
:103BD00060939F0650913601252F30E081E090E000
:103BE000052E02C0880F991F0A94E2F7862B972BA7
:103BF0009093402E80933F2E60912B2E7091E9324E
:103C0000F901EE0FFF1FA9ECB1E07A9FC0017B9F85
:103C1000900D1124E80FF91FE95AF04D812C912CD9
:103C20005401839404C0880C991CAA1CBB1C6A957F
:103C3000D2F780949094A094B09465817681862286
:103C4000972296828582E0912B2EB901F4E0660FCF
:103C5000771FFA95E1F7680F791F695A704DE60FE3
:103C6000F72FF11DEB5BFF4F24503E4FD9012C91F4
:103C700020835E3059F4E0912B2E895A904DE80F45
:103C8000F92FF11DEB5DFE4F8CE6808381E0809380
:103C900022338091452F882341F080919F06909197
:103CA000A0069093402E80933F2E442309F45FC0DA
:103CB0008091442F882309F45AC0809130338111B8
:103CC00056C080913133811152C02091E93230E0E9
:103CD00089EC91E0289FF001299FF00D389FF00DAD
:103CE000112490E080E0DC01AA0FBB1FAE0FBF1FC4
:103CF000A95AB04D16961C921E92159701968031C6
:103D0000910589F7E454F04D40E150E089E16FE618
:103D10009AE6DF01A05ABF4F8C9350968C93509631
:103D20008C9350968C9381938787878F67AFDF0141
:103D3000A15BBF4F9C934150510959F789EC91E029
:103D4000289FF001299FF00D389FF00D1124E95AAA
:103D5000F04D81E0838314829FE0908398E191830A
:103D600093E09093320180932233809337018091C6
:103D7000742E811104C08091752E882319F081E082
:103D8000809337018091732E882391F101151105DD
:103D900079F10E94D00D873008F06DC19091E93221
:103DA0008F5F49EC51E0949F9001959F300D112455
:103DB000F901E95AF04D6F0183839091CA0E89177A
:103DC000B9F060E088E0890F0E94C90581EA0E948D
:103DD000A306D60113968C918093CA0E60E0885F8B
:103DE0000E94C9058BED0E94A30681E080932233D7
:103DF000809104338823F1F08091303381111AC00F
:103E000081E08093370180932233809107338F5F65
:103E1000843009F456C18093073380910733813091
:103E200009F460C108F450C1823009F468C18330DC
:103E300009F472C1D090F832DD20A9F0012B99F07D
:103E40000E94D00D9091E93229EC31E0929FF0016F
:103E5000939FF00D1124E95AF04D808381E0809307
:103E60003701809322338091852E81111092A20612
:103E7000D110AAC009810111A7C0809130338111EE
:103E8000A3C08091732E81119FC02091313313E024
:103E9000E116F10409F0F2C1222309F4F1C1809185
:103EA000E932882E912C60913601A62FB0E01D01D9
:103EB000220C331C89EC91E0889EA001899E500D54
:103EC000989E500D1124F101E40FF51FE95AF04DB1
:103ED00085819681E0917C2EF0917D2EF887EF838D
:103EE00070902233F0911B2EFD87EEE8FEE25D011B
:103EF00034E0AA0CBB1C3A95E1F7A40EB51E85016F
:103F0000095A104D580150E040E071E0C12CD12C0D
:103F10007601C3948D0104551E4F1E830D831AEF45
:103F2000160F1E878D0104501E4F1A830983342FEC
:103F30001382AF81B885042E02C0B695A7950A9466
:103F4000E2F71A2F117010836180161531F162802B
:103F5000611022C0A0FF20C07383DC01042E02C0C8
:103F6000B695A7950A94E2F7A170BB276F3039F098
:103F70000E85023020F06C3011F06111F0C0AB2BD7
:103F800009F4D7C0A2E0A683A681A13009F4D3C06A
:103F9000A23009F464C1722E11834F5F5F4F3B96CC
:103FA0004031510521F67092223329EC31E0829E96
:103FB000F001839EF00D929EF00D1124E20DF31D91
:103FC000E95AF04D968385838091340190913501B3
:103FD000049709F0C6C31091432F1983112309F4E4
:103FE0001CC28091442F882341F080913F2E9091F4
:103FF000402E9093A00680939F06E0903E2FF09075
:104000003F2F00919F061091A006E114F10409F4DE
:1040100095C20E94D00D803108F098C1E82FF0E0E1
:10402000EC5EFF4D0C9470499B229B22A421A4219D
:104030007F227F22822282228522852288228B2251
:104040008E228E22982295220115E3E01E0741F070
:104050000115F0E31F0751F0003C110509F05ECD9A
:1040600081E080931B2E8093A20658CD8FE0809331
:10407000360181E0F8CF873009F4BACE9091E93269
:10408000885049EC51E0949F9001959F300D112488
:10409000F901E95AF04D6F0184839091C90E891797
:1040A00009F4A6CE61E088E0890F0E94C90581EA83
:1040B0000E94A306D60114968C918093C90E61E0EC
:1040C0008ECE10920733A9CE2091E93289EC91E08F
:1040D000289FF001299FF00D1124E95AF04D88E145
:1040E0008183A8CE2091E93289EC91E0289FF001EC
:1040F000299FF00D1124E95AF04D8CE0F1CF209169
:10410000E93289EC91E0289FF001299FF00D1124FC
:10411000E95AF04D80E2E4CF2091E93289EC91E058
:10412000289FF001299FF00D1124E95AF04D80E1FC
:10413000D7CF768329CF2601370104C0440C551C04
:10414000661C771C3A95D2F784299529DA01AB5B76
:10415000BF4F3D016A0C7B1CAD81BE8176C00D85D1
:10416000002309F445C0AB2BC1F1DA01AB5BBF4FB3
:10417000AA0DBB1DAC91A7FF2DC00A2F0F77A981F7
:10418000BA817C90701618F5B3E0B683A681A23090
:1041900031F1A33009F463C0A13009F0FCCE26014F
:1041A000370104C0440C551C661C771C3A95D2F7A5
:1041B00084299529DA01AB5BBF4F3D016A0C7B1C5A
:1041C000A981BA813C913058D3013C93E4CE02E0FE
:1041D0000683DCCFA3E0A683D9CF7683D7CFDA01DD
:1041E000AB5BBF4F3D016A0C7B1CAD81BE81EACF4A
:1041F000AB2B99F1DA01AB5BBF4FAA0DBB1D0C9144
:1042000007FD28C0A981BA817C90701600F5B3E043
:10421000B683A681A23009F499CFA33001F1A13071
:1042200009F0B9CE2601370104C0440C551C661CA8
:10423000771C3A95D2F784299529DA01AB5BBF4FF9
:104240003D016A0C7B1CA981BA813C91BDCF02E083
:104250000683DFCFA3E0A683DCCF7683DACF168296
:104260002601370104C0440C551C661C771C3A9586
:10427000D2F740945094842195218DCE2111A4CE63
:104280008091832E882309F49FCE8091482E10912F
:10429000232E8823E9F00E94D00D883008F087E0B3
:1042A0008093242E8091242E982F9295907F212FF9
:1042B0002F70920F90931D2E191729F00E94E1156F
:1042C00081E08093BF0610921E2E1092202E7CCE8D
:1042D0000E94B70D8983882339F10E94D00D09818E
:1042E000081B00931E2E0E94D00D9091242E9295B3
:1042F000907F890F80931F2E80931D2E81E08093E5
:10430000A2068093222E1092202E81E08093370106
:1043100080911D2E181304C080911F2E181354CEA7
:1043200081E08093BF0650CE8091A2068111EDCF2F
:104330001092222E0E94D00D9091242E9295907F63
:10434000890F80931D2EDFCF29E02F87E11420E312
:10435000F20629F481E08093A2063FE03F874F8573
:10436000242F30E081E090E002C0880F991F4A9529
:10437000E2F7082B192B1093402E00933F2EA091AB
:104380002B2E6091E932F901EE0FFF1F49EC51E04D
:10439000649FC001659F900D1124E80FF91FE95A31
:1043A000F04D41E050E060E070E004C0440F551F64
:1043B000661F771FAA95D2F7409550956095709526
:1043C000A581B6814A235B2356834583E0912B2E3A
:1043D000A90114E0440F551F1A95E1F7480F591F22
:1043E000495A504DE40FF52FF11DEB5BFF4F245060
:1043F0003E4FD9012C9120830F850E3059F4E09166
:104400002B2E895A904DE80FF92FF11DEB5DFE4FD1
:1044100080E5808381E0809322338091452F88233B
:1044200041F080919F069091A0069093402E80933A
:104430003F2E8091F832811139C180912E33811144
:1044400035C11981111132C18091732E81112EC194
:1044500080913E2F90913F2F882790738115904334
:1044600009F079C081E080939E064EE8E42E4EE28A
:10447000F42ED12CC12C52E0952E412C512C32011E
:10448000439409EC11E078E0872EAC2C20903E2F6D
:1044900030903F2FC1010C2C02C0969587950A944D
:1044A000E2F7282F2170D7012C9311963C91119798
:1044B000231709F4ECC012962C912111E8C080FF5B
:1044C000E6C0B0909E06B0913133B983EFEFEC0DAA
:1044D000EF3008F043C0F0E0E059FD4D0C94704916
:1044E000492562257E259725B125CA25E425FD2588
:1044F00018266626802631264D269A26B6263AE0CC
:104500003F8724CF4BE04F8721CF52E05F871ECFFC
:1045100083E08F871BCF94E09F8718CF8091A206FE
:10452000811114CFFEE0FF8711CFA6E0AF870ECF39
:10453000B7E0BF870BCFE8E0EF8708CF80913F2E31
:104540009091402E8017910709F467CF1093402E69
:1045500000933F2E62CF10929E0687CFE981EE2313
:1045600091F0E091C40E2091E932209FC001219F7B
:10457000900D1124895A904DE80FF92FF11DEB533E
:10458000FF4F22E3208332E33093960680928D061C
:1045900021E020938C06BB20D9F03981332391F0A0
:1045A000E091C40E2091E932209FC001219F900D1F
:1045B0001124895A904DE80FF92FF11DEB5CFE4F45
:1045C0004DE640835DE650939D068FE080938D0617
:1045D00080918D06E82FF0E0E257F94F60810E944C
:1045E0000F0F84EF8A0D823028F0211490E33906F2
:1045F00009F010C4BB2009F4D5C310928B06A98121
:10460000AA2389F18091C40EA301920104C0220F54
:10461000331F441F551F8A95D2F7C901209189067F
:1046200030918A06822B932B90938A068093890679
:104630008091C40EA301920104C0220F331F441FB6
:10464000551F8A95D2F7DA01C90180959095A095FA
:10465000B09520918706309188068223932390930A
:104660008806809387068091B1008111FCCF8091EC
:104670008B06806290E00E94BF0F80ED97E00E9461
:104680006F038091D92D837090E00E94BF0FD701F6
:104690008C9111968C93BFEFCB1ADB0AEBE0EE0EF8
:1046A000F11CF0E1CF16D10409F0EFCED0908C06CA
:1046B000DD2009F456C00091E93210E090912233D8
:1046C00029EC31E0029FA001039F500D129F500D75
:1046D0001124495A504D5A0130E020E04A0153E27A
:1046E000850E911CD50191964091890650918A06BC
:1046F0004115510509F4C3C3CA01809590956D9188
:104700007C9111978623972311969C938E93F401A5
:1047100080819181842B952B9183808310928A06CE
:10472000109289069D2D2E5F3F4F20323105E1F614
:1047300090932233C5010E948308C5010E94CF07D0
:1047400089EC91E0089FF001099FF00D189FF00D92
:104750001124E95AF04DA2EAB4E001900D920197BC
:10476000E1F78091340190913501029709F043C03F
:104770008091852E81111092A20680913E2F9091FA
:104780003F2F892B41F18091482E0091232E0D83DC
:10479000882309F4AAC30E94D00D883008F087E06E
:1047A0008093242E8091242E982F9295907F2D8196
:1047B0002F70920F90931D2E1D81191729F00E94C2
:1047C000E11581E08093BF061092222E10921E2EDA
:1047D00081E0809337018091402F882361F08091A0
:1047E000572E882341F080913E33833008F0BDC3BB
:1047F0008F5F80933E3380913401909135018130F9
:10480000910509F0BDC480913E2F90913F2F892BD7
:10481000E1F01091482E0E94D00D112309F4A8C395
:10482000873008F087E08093242E9091232E80918A
:10483000242E8295807F292F2F70820F80931D2E2A
:10484000981719F081E08093BF062091EE32222361
:1048500009F18091272E9091282E0197813034E024
:10486000930708F09DC39093282E8093272EE09104
:10487000272EF091282EE054F94F808180931D2E31
:104880009091232E891719F081E08093BF0681E073
:104890008093370170914F2F772309F18091272E54
:1048A0009091282E0196813044E0940708F07DC352
:1048B0009093282E8093272EE091272EF091282E7A
:1048C000E054F94F808180931D2E9091232E8917FB
:1048D00019F081E08093BF0681E0809337016091F9
:1048E000442F6623A1F01092282E1092272E1092AA
:1048F000BC068091C00680931D2E9091232E8917AF
:1049000019F081E08093BF0681E0809337018091A8
:10491000402F9091F93291114BC3811158C380916E
:10492000F22D882309F442C08091A00481113EC079
:104930008091272E9091282E2091232EFC01E05467
:10494000F94F208301968130E4E09E0708F015C4FA
:104950009093282E8093272E8091272E9091282E99
:10496000FC01E054F94F308130931D2E311107C006
:10497000222329F020931D2E31E03093BF06309181
:104980001D2E231719F021E02093BF062091C00AA5
:104990003091C10A2817390720F49093C10A8093F7
:1049A000C00A81E08093422E809337018091A10458
:1049B000882301F11092A104F1E0F09337011092E5
:1049C000422E0091252E0983802F0E94630D0093B3
:1049D000262EE091272EF091282EE054F94F808169
:1049E00080931D2E9091232E891709F40FC411E096
:1049F0001093BF068091422E882309F407C480914A
:104A0000F32D882309F402C41092422E8091262EA1
:104A10002091C00A9091C10A2093BE0A9093BF0AC8
:104A200000EC16E090E0B0E0A0E04C015D012AE06F
:104A3000880C991CAA1CBB1C2A95D1F72AE0003CC3
:104A4000120709F4D4C3C501B40170528F4F9F4FB0
:104A50000E943A0D780130E43983D7016D917D01D0
:104A600084E294E30E941407B981B150B983B11173
:104A7000F4CF0E94FA0165E070E080E090E00E94CF
:104A80009F03005C1F4FE0E48E0E911CA11CB11C23
:104A9000D5CF4981442391F0E091C40E2091E932B1
:104AA000209FC001219F900D1124895A904DE80F3D
:104AB000F92FF11DEB53FF4F89E1808389E180934A
:104AC000960664CD5981552391F0E091C40E209152
:104AD000E932209FC001219F900D1124895A904DE9
:104AE000E80FF92FF11DEB52FF4F82E3808392E331
:104AF0009093970689E080938D064ACDA981AA23D9
:104B000091F0E091C40E2091E932209FC001219FD5
:104B1000900D1124895A904DE80FF92FF11DEB5299
:104B2000FF4F89E1808389E180939706E3CFB981C4
:104B3000BB2391F0E091C40E2091E932209FC00187
:104B4000219F900D1124895A904DE80FF92FF11DE6
:104B5000EB51FF4F22E3208332E3309398068AE043
:104B6000CACF4981442391F0E091C40E2091E932EB
:104B7000209FC001219F900D1124895A904DE80F6C
:104B8000F92FF11DEB51FF4F89E1808389E180937B
:104B90009806E5CF5981552391F0E091C40E2091FC
:104BA000E932209FC001219F900D1124895A904D18
:104BB000E80FF92FF11DEB50FF4F82E3808392E362
:104BC000909399068BE097CFA981AA2391F0E09169
:104BD000C40E2091E932209FC001219F900D112425
:104BE000895A904DE80FF92FF11DEB50FF4F89E1E5
:104BF000808389E180939906E5CFB981BB2391F049
:104C0000E091C40E2091E932209FC001219F900DB8
:104C10001124895A904DE80FF92FF11DEB59FF4FE0
:104C200022E3208332E33093900690928D06B0CC3D
:104C30004981442391F0E091C40E2091E932209FF4
:104C4000C001219F900D1124895A904DE80FF92F32
:104C5000F11DEB59FF4F89E1808389E18093900634
:104C6000E4CFB11095CC5981552391F0E091C40E59
:104C70002091E932209FC001219F900D1124895A73
:104C8000904DE80FF92FF11DEB5DFE4F8FE680830D
:104C90008FE680939C068EE02ECFB11079CC89816F
:104CA000882391F0E091C40E2091E932209FC00149
:104CB000219F900D1124895A904DE80FF92FF11D75
:104CC000EB5DFE4F80E5808380E5E3CF99819923FA
:104CD00091F0E091C40E2091E932209FC001219F04
:104CE000900D1124895A904DE80FF92FF11DEB58C2
:104CF000FF4FA2E3A083B2E3B093910683E0FBCE23
:104D0000E981EE2391F0E091C40E2091E932209FD9
:104D1000C001219F900D1124895A904DE80FF92F61
:104D2000F11DEB57FF4F22E3208332E330939206CD
:104D300084E0E1CE4981442391F0E091C40E2091BA
:104D4000E932209FC001219F900D1124895A904D76
:104D5000E80FF92FF11DEB54FF4F5BE650838BE614
:104D60008093950697E090938D0612CCA981AA2393
:104D700091F0E091C40E2091E932209FC001219F63
:104D8000900D1124895A904DE80FF92FF11DEB5524
:104D9000FF4FB0E7B083E0E7E0939406F6E0F093CE
:104DA0008D06F6CB90928B063981332309F45BCCC8
:104DB0008091C40EA301920104C0220F331F441F2F
:104DC000551F8A95D2F7C901209187063091880630
:104DD000822B932B90938806809387068091C40E34
:104DE000A301920104C0220F331F441F551F8A954F
:104DF000D2F7DA01C90180959095A095B0952091E0
:104E0000890630918A068223932390938A068093A1
:104E1000890629CC8091B1008111FCCFF601E456BE
:104E2000FE4F8081A82EB12C9091D92D21E030E049
:104E300002C0220F331F8A95E2F79370A901492B14
:104E4000CA010E94BF0F5981552309F416CC8091E5
:104E5000C40EF501EE0FFF1FE559F94FA3019201B2
:104E600004C0220F331F441F551F8A95D2F7C90172
:104E700020813181822B932B91838083FECB4091C3
:104E800087065091880641155105B9F0BA01609521
:104E90007095F4018081918186239723918380838B
:104EA0008D919C911197842B952B11969C938E93A9
:104EB000109288061092870635CCA9014559594FA2
:104EC000FA01608171816115710509F42CCC7501BD
:104ED000E20EF31EF70185819681862B972B968330
:104EE0008583FA01118210821DCC0E94B70D89833F
:104EF000882349F10E94D00D0981081B00931E2EC2
:104F000011E0109337010E94D00D9091242E9295BC
:104F1000907F890F80931F2E80931D2E1093A206E1
:104F20001093222E1092202E80911D2E0D81081399
:104F300004C080911F2E08134ECC81E0809337016E
:104F40008093BF0648CC8091A2068111EDCF1092CC
:104F5000222E1092202E0E94D00D9091242E9295F8
:104F6000907F890F80931D2EDFCF10923E3343CC6C
:104F700090911933992341F08093252E81E08093FD
:104F8000A1048093370161CC9091242E9295907F5B
:104F9000890F80931D2E9091232E891353CC55CCCD
:104FA0001092282E1092272E62CC80E094E080CCC4
:104FB000882309F44CC0E0ECF6E08181803811F4DC
:104FC0008081818331965AE0EF3BF507B1F78091FC
:104FD00019338823C1F08091C00A9091C10A90933F
:104FE000282E8093272E8054994FDC018C9180933A
:104FF0001D2E9091232E891719F081E08093BF0612
:1050000081E080933701222309F457C04091C00A00
:105010005091C10A4115510509F44FC0E091272E66
:10502000F091282E9A0121503109CF010196E21703
:10503000F30708F060C0E054F94F3196DF01A05C3F
:10504000B640A417B507D8F4A181A083F6CF80910C
:10505000272E9091282EFC01E054F94F20E8208360
:1050600001969093C10A8093C00A81E08093422EFA
:10507000809337012093232E20931D2E50CCF901CD
:10508000E054F94F10829093282E8093272E30936E
:10509000C10A2093C00A8054994FFC0180818093FB
:1050A0001D2E9091232E891719F081E08093BF0661
:1050B00081E08093422E809337017723B1F14091B4
:1050C000272E5091282E2091C00A3091C10A2F5FBF
:1050D0003F4FCA0101974217530708F049C0F90131
:1050E000E054F94FDF01A05CB640A417B50740F0CB
:1050F00072917183F7CF9093282E8093272EDDCF66
:105100009093282E8093272E4091232E8054994FE0
:10511000DC014C933093C10A2093C00A40931D2EAA
:1051200081E08093422E80933701662309F4F7CB08
:105130001092282E1092272EE0ECF6E01192BAE0A1
:10514000E03CFB07D9F71092C10A1092C00A809187
:10515000C00680931D2E9091232E891719F081E0AF
:105160008093BF0681E08093422E80933701D7CB96
:105170009093282E8093272ED8CF80E094E0E8CB20
:10518000009759F08530910509F010CC2091BD06AB
:105190003091BE06232B09F009CC2091442F222305
:1051A000A1F01092282E1092272E1092BC0620916A
:1051B000C00620931D2E3091232E231719F021E0D5
:1051C0002093BF0621E02093370120913E2F30919C
:1051D0003F2F232B09F4EACB059709F4E7CB0E9474
:1051E000D00D8093252E81E08093A104DDCB0E9419
:1051F000581181E08093A0040E94D10360939C0425
:1052000070939D0480939E0490939F040E94D10309
:1052100000919C0410919D0420919E0430919F0464
:10522000601B710B820B930B693E734081059105E6
:1052300010F01092A004809122338823A9F11092DB
:105240002233DD24D394D092432E8091232E082F35
:1052500010E02091242E30E1239F00191109112420
:105260001A83098380913401909135010553114FC0
:105270005801049709F026C4D801DC9289EC91E02A
:1052800009811A81089FD001099FB00D189FB00DA8
:105290001124AD5CBE4EE2EAF4E001900D9201975C
:1052A000E1F781E0809337018091432E882309F450
:1052B00096C18091F12D882309F491C180912E33FC
:1052C00081118DC10BEC1EE083E3282E81E1382E85
:1052D0001982D8018D918D01882309F44FC1A090C6
:1052E000E932B12CE9ECF1E0AE9EC001AF9E900D29
:1052F000BE9E900D11249C01295A304D6901F10187
:10530000D90189EC91E001900D920197E1F780902D
:10531000242E8294B0EF8B223981830E282D30E029
:10532000A0ECB1E00E942D492B013C010E943A0DF6
:10533000F12CE12CF701EE0FFF1FEC0DFD1D658137
:10534000968084E294E30E941407692D84E294E33A
:105350000E9414074FEFE41AF40A50E1E516F10435
:1053600049F7A9ECB1E0AA9EC001AB9E900DBA9E90
:10537000900D1124FC01E95AF04D7F01608184E217
:1053800094E30E941407D70111966C9184E294E390
:105390000E941407F701638184E294E30E941407DA
:1053A000D70114966C9184E294E30E941407F701EC
:1053B000EB53FE4F608184E294E30E941407F701EF
:1053C000EA53FE4F608184E294E30E941407F701E0
:1053D000E953FE4F608184E294E30E941407F701D1
:1053E000E853FE4F608184E294E30E941407E8E1F1
:1053F000EE2EF12C60E084E294E30E941407B1E009
:10540000EB1AF108B9F70E94FA0165E070E080E05C
:1054100090E00E949F03282D30E0A7E0B0E00E94BA
:105420002D496B017C01812C912C5401A301920127
:10543000205C3F4F4F4F5F4F2F83388749875A87F4
:105440000E9459136F81788589859A85680D791D29
:105450008A1D9B1D0E943A0D2401350130E43D83D5
:105460008091E93249EC51E0849FF001859FF00D75
:105470001124E95AF04DE40DF51DEB5BFE4F608100
:1054800084E294E30E9414075D8151505D838FEFA5
:10549000481A580A680A780A5111E2CF0E94FA01A4
:1054A00065E070E080E090E00E949F0390E4890E48
:1054B000911CA11CB11CA0E88A169104A104B1049E
:1054C00009F0BECFB3E0CB0ED11CE11CF11C2601CC
:1054D000370176E0440C551C661C771C7A95D1F791
:1054E000F12CE12C0E945913C301B2010E943A0D24
:1054F0004701E4E0ED83B12CA12C640164E0CC0C05
:10550000DD1C6A95E1F78091E93229EC31E0829F58
:10551000F001839FF00D1124EC0DFD1DEA0DFB1D24
:10552000E456F04D608184E294E30E9414073FEF5B
:10553000A31AB30A40E1A416B10429F75D815150C2
:105540005D838FEF881A980A5111D5CF0E94FA0116
:1055500065E070E080E090E00E949F0390E4490ED7
:10556000511C611C711CA4E0EA0EF11CB0E1EB16A9
:10557000F10409F0B7CFF80131971082E7E32E1A52
:10558000EEEF3E0AF981FF5FF983F03109F0A1CE19
:105590001092432E0E9458118091E93229EC31E09B
:1055A000829FD001839FB00D1124A95AB04D8091E4
:1055B000232E90E04091242E00E1409F8019910914
:1055C0001124829FF001839FF00D929FF00D112412
:1055D000ED5CFE4E01900D9221503040D9F7809144
:1055E000BF06882309F4BFC11092BF0681E08093F3
:1055F0003701D0901D2E10E8D11609F43FC16091FB
:105600003401709135016230710558F08091BD060A
:105610009091BE06892B09F078C26530710509F0BA
:1056200074C22D2D30E0A0ECB1E00E942D492B0179
:105630003C010E943A0D0E94FA0180E590E00E9430
:10564000990110E000E0BB24B39459ECE52EFF244F
:10565000F3940E944801C82E0E9448019091E932BB
:105660009B25F801EE0FFF1F9E9D90019F9D300D21
:1056700011243A832983E20FF31FE95AF04D8C87F6
:105680001B868B859C858C29968385830F5F1F4F96
:1056900000311105F1F60E94480109811A81095A69
:1056A000104D1A830983D8018C930E944801E98127
:1056B000FA8181830E944801A981BA8113968C9353
:1056C0008093CA0E0E944801E981FA818483809305
:1056D000C90E0E944801E981FA81EB53FE4F808395
:1056E0000E944801E981FA81EA53FE4F80830E94BB
:1056F0004801E981FA81E953FE4F80830E94480105
:1057000009811A8108531E4FD8018C9308E110E0DB
:105710001A8309830E94480109811A8101501109E5
:105720001A830983012BB1F72D2D30E0A7E0B0E0FB
:105730000E942D496B017C01812C912C5401A30105
:105740009201205C3F4F4F4F5F4F29833A834B8339
:105750005C8301E00E94591369817A818B819C816D
:10576000680D791D8A1D9B1D0E943A0D0E94FA0149
:1057700080E590E00E9499012401350110E40E9427
:1057800048019091E932902749EC51E0949FF00153
:10579000959FF00D1124E95AF04DE40DF51DEB5BDA
:1057A000FE4F808311505FEF451A550A650A750A4E
:1057B0001111E5CF80E4880E911CA11CB11C90E86A
:1057C00089169104A104B10429F6A3E0CA0ED11CE4
:1057D000E11CF11C2601370126E0440C551C661C17
:1057E000771C2A95D1F71A8219828824839439EC80
:1057F000C32EDD24D3940E945913C301B2010E9429
:105800003A0D0E94FA0180E590E00E949901E9803A
:10581000FA8094E0992E10E000E0570184E0AA0C91
:10582000BB1C8A95E1F70E9448019091E9329825C6
:105830009C9DF0019D9DF00D1124EA0DFB1DE00FD4
:10584000F11FE456F04D80830F5F1F4F00311105AB
:1058500051F79A94BFEFEB1AFB0A9110DCCFE0E40A
:105860004E0E511C611C711C09811A810C5F1F4F67
:105870001A8309830031110509F0BDCF83E08093BD
:10588000320121E02093C50E0E94C309F090E93255
:1058900031E0F3260F2D10E089EC91E0089FA00184
:1058A000099F500D189F500D1124495A504D5A838D
:1058B0004983CA010E941F0889819A810E94830836
:1058C000E981FA81EB58FF4F8081811102C082E3A8
:1058D000808389EC91E0089FF001099FF00D189FEB
:1058E000F00D1124E053F04D8081811102C089E157
:1058F000808389EC91E0089FF001099FF00D189FCB
:10590000F00D1124EC52F04D8081811102C089E12B
:10591000808389EC91E0089FF001099FF00D189FAA
:10592000F00D1124E852F04D8081811102C089E10F
:10593000808389819A810E94CF0781E080939B04B4
:1059400080913133882321F08091323381110BC053
:1059500010929B04F092E93280911D2E8093232EA9
:1059600081E0809337018091F22D882319F081E046
:105970008093370100913401109135011A83098316
:105980000530110561F50E94E40D80910C2E8823ED
:1059900031F18091402F882309F4F0C080913F2E8F
:1059A0009091402EECEEF1E02CEF31E061E070E000
:1059B0004191DB0102C0AA0FBB1F4A95E2F7AD017E
:1059C0008A2B952B2E173F0799F79093402E8093A3
:1059D0003F2E8FEF9FEF9093162E8093152E809180
:1059E000BB06882309F455C080913111823008F438
:1059F00050C009811A810130110509F44AC0809113
:105A00001E2E8823A1F09091202E891710F4109259
:105A1000202E80911F2E9091202E890F80931D2E75
:105A20009091232E891719F081E08093BF06098198
:105A30001A810115110549F08091BD069091BE06AD
:105A4000892B11F505301105F9F42091272E30919D
:105A5000282E8091C00A9091C10A2817390720F09A
:105A60001092282E1092272EE091272EF091282EAA
:105A7000E054F94F808180931D2E9091232E891739
:105A800019F081E08093BF061092BB0681E08093FD
:105A900037012F960FB6F894DEBF0FBECDBFDF9152
:105AA000CF911F910F91FF90EF90DF90CF90BF901B
:105AB000AF909F908F907F906F905F904F903F90AE
:105AC0002F9008958091E93299ECE92EFF24F39408
:105AD0008E9D80018F9D100D1124095A104DC80113
