:020000040000FA
:100000000C9409010C9433010C9433010C943301CA
:100010000C9433010C9433010C9433010C94330190
:100020000C9433010C94D0260C9433010C943301BE
:100030000C9433010C94FF260C9433010C9433017F
:100040000C9433010C9433010C945A240C94330116
:100050000C9433010C9433010C9433010C94330150
:100060000C9433010C9433010C9404250C9433014B
:100070000C94CE240C94A4240C9433010C943301DE
:100080000C9421260C9433010C943301204F48002A
:10009000204348004558540041434300204D54003C
:1000A000204C540020534400204244004352480056
:1000B000524944002020200048434C0052494D0042
:1000C0002048540020202000545247002B34002B9D
:1000D00033002B32002B31002B30002D31002D321C
:1000E000002D33002042004123002041004723001F
:1000F00020470046230020460020450044230020DE
:100100004400432300204300546170200053746571
:1001100070005074726E0054725772005472506CBA
:1001200000484800432F4F0053594E0046524500A7
:1001300045585000534C56004D535400C800C4005D
:10014000C000BC00B800B400B000AC00A800A4001F
:10015000A0009C009800940090008C00E100DE005C
:10016000DB00D800D500D200CF00CC000501020191
:10017000FF00FC00F900F600F300F000ED00EA00DB
:10018000E700E4001C01170112010D010801240120
:1001900021012C0128013801340130010000210027
:1001A000240027002A0000002200250028002B0040
:1001B000020202020202020204040404040404040F
:1001C000030303030303030301010101010101010F
:1001D0000102040810204080010204081020408021
:1001E0000102040810204080010204081020408011
:1001F0000000000203000A0B0000000005040908CB
:1002000000000000000000000000000000000000EE
:10021000272711241FBECFEFD0E4DEBFCDBF14E0EF
:10022000A0E0B1E0E2EDF0E900E00BBF02C0079012
:100230000D92AE30B107D9F725E3AEE0B4E001C0CE
:100240001D92AE37B207E1F711E0C9E0D1E004C07A
:100250002197FE010E945E48C830D107C9F70E946D
:10026000FA270C9467480C9400009091E133809138
:10027000E0332FEF3FEF981748F4E92FF0E0E25614
:10028000FC4C208130E09F5F9093E133C9010895D9
:100290009091E1338091E0332FEF3FEF981748F4CE
:1002A000E92FF0E0E256FC4C208130E09F5F909314
:1002B000E133C90108959C0180919D338111FCCFE8
:1002C00081E080939D3380939C339FEF90939B3389
:1002D00010929A339FE3909399338093983390913F
:1002E0009833220F331F892F822B8093983380916C
:1002F0009733813001F51092973380919833809332
:10030000BB0085EC8093BC0080919D338130E1F38C
:1003100080919A3390E4803410F490919A33A5E55B
:10032000B3E3EEE9F3E380E0891307C01092E13311
:100330008093E033089585EEE5CF2D9121938F5F73
:10034000F3CF2091543381E0233408F040C08091F2
:100350009D338111FCCF8091533392E090939D3374
:1003600091E090939C339FEF90939B3310929A333C
:1003700020939933A1E1B3E3E5E5F3E390E029139A
:100380002DC01092983390919833880F892B8093C9
:10039000983380919733813029F51092973380916B
:1003A00098338093BB0085EC8093BC0080919D3393
:1003B0008230E1F380919B338F3FB1F080919B338A
:1003C0008032A1F080919B33803391F084E01092D1
:1003D00010331092543310920F3308953D9131939E
:1003E0009F5FCDCF85EEE0CF80E0F1CF82E0EFCF11
:1003F00083E0EDCFE0910B34F0910C34309719F09D
:1004000086E494E3099580914734823F09F4BAC0A9
:1004100090F5803C09F499C0B8F4803909F44FC0D4
:1004200040F4E0910F34F0911034803809F44BC05F
:100430000895803A09F484C0E0911534F09116349F
:10044000803B09F440C00895803E09F462C040F446
:10045000E0911934F0911A34803D09F47AC008957E
:10046000803F09F47DC0E0911F34F0912034813F3A
:1004700009F49BC008958A3FC1F1A8F4863F09F4AE
:1004800099C040F4E0912334F0912434833F09F47F
:100490008CC00895883F09F1E0912B34F0912C3401
:1004A000893FF9F008958C3F51F120F18E3F61F1C1
:1004B000E0913334F09134348F3F99F00895E09116
:1004C0001134F0911234309709F479C040914934D5
:1004D00060914834809146340994E0912734F0913A
:1004E0002834309709F46BC00994E0912934F091D5
:1004F0002A34F7CFE0912D34F0912E34F2CFE091F1
:100500002F34F0913034EDCFE0913134F09132342A
:10051000E8CFE0911B34F0911C34309709F44FC0C0
:100520006091493420E8629FB001112460787F73A4
:10053000809148348F77682B7052809146340994AB
:10054000E0911334F0911434BECFE0911734F09160
:1005500018343097A1F16091483480914634099461
:10056000E0911D34F0911E34309749F16091483488
:10057000709149346138710510F060E870E08AE4E8
:1005800094E30994E0912134F09122343097B9F04A
:100590008091493420E8829FC001112480789F73A4
:1005A000209148342F77822B0994309741F0809125
:1005B00048340994E0912534F091263492CF08957F
:1005C00090E0FC01E051FE4F2491FC01E053FE4F0E
:1005D000349180559E4FFC018491882359F1222348
:1005E000C1F022502A30A8F4E22FF0E0E650FD4F8F
:1005F0000C945E483303370304031B030903090308
:100600001F03250329032F03909180009F77909368
:100610008000E82FF0E0EE0FFF1FEA55FE4FA59196
:10062000B4918FB7F894EC91611124C030953E23BA
:100630003C938FBF0895909180009F7DE8CF90916B
:10064000B0009F779093B000E4CF9091B0009F7D71
:10065000F9CF909190009F7790939000DACF90918E
:1006600090009F7DF9CF94B59F7794BDD2CF94B57C
:100670009F7DFBCF3E2BDCCFCF93DF9390E0FC013F
:10068000E053FE4F249180559E4FFC0184918823B6
:10069000D1F090E0880F991FFC01E456FE4FA59120
:1006A000B491FC01EA55FE4FC591D49161110EC081
:1006B0009FB7F8948C91E22FE0958E238C9328813C
:1006C000E223E8839FBFDF91CF9108958FB7F8941D
:1006D000EC91E22BEC938FBFF6CF8130910539F08E
:1006E000880F991F880F991F05970197F1F70895B3
:1006F0003FB7F89480910B3390910C33A0910D3358
:10070000B0910E3326B5A89B05C02F3F19F0019676
:10071000A11DB11D3FBFBA2FA92F982F8827BC015B
:10072000CD01620F711D811D911D42E0660F771F83
:10073000881F991F4A95D1F708958F929F92AF9283
:10074000BF92CF92DF92EF92FF924B015C010E9429
:1007500078036B017C010E9478036C197D098E0976
:100760009F09683E734081059105A8F321E0821A34
:100770009108A108B10888EEC80E83E0D81EE11CDC
:10078000F11C81149104A104B10429F7FF90EF90AA
:10079000DF90CF90BF90AF909F908F9008952FB72C
:1007A000F8946091073370910833809109339091E8
:1007B0000A332FBF08950F931F938091E633882348
:1007C00061F00E94CF036093E2337093E333809330
:1007D000E4339093E5331092E6330E94CF03009107
:1007E000E2331091E3332091E4333091E533601B21
:1007F000710B820B930B6A3071058105910538F0FE
:10080000129905C08091E633811101C0129A1F919F
:100810000F910895AF92BF92CF92DF92EF92FF9225
:100820000F931F93CF93DF936C017B018B01040F18
:10083000151FEB015E01AE18BF08C017D10759F0B4
:100840006991D601ED91FC910190F081E02DC601F6
:100850000995892B79F7C501DF91CF911F910F91F0
:10086000FF90EF90DF90CF90BF90AF900895FC0184
:10087000538D448D252F30E0842F90E0821B930B05
:10088000541710F0CF96089501970895FC01918DAB
:10089000828D981761F0A28DAE0FBF2FB11D5D96AE
:1008A0008C91928D9F5F9F73928F90E008958FEF50
:1008B0009FEF0895FC01918D828D981731F0828D04
:1008C000E80FF11D858D90E008958FEF9FEF08955B
:1008D000FC01918D228D892F90E0805C9F4F821BBF
:1008E00091098F73992708958BED94E30E94680412
:1008F00021E0892B09F420E0822F0895FC01A48DCA
:10090000A80FB92FB11DA35ABF4F2C91848D90E031
:1009100001968F739927848FA689B7892C93A08914
:10092000B1898C91837080648C93938D848D98139E
:1009300006C00288F389E02D80818F7D8083089531
:10094000EF92FF920F931F93CF93DF93EC0181E01F
:10095000888F9B8D8C8D98131AC0E889F9898081C6
:1009600085FF15C09FB7F894EE89FF896083E889F9
:10097000F98980818370806480839FBF81E090E0EB
:10098000DF91CF911F910F91FF90EF900895F62E78
:100990000B8D10E00F5F1F4F0F731127E02E8C8D12
:1009A0008E110CC00FB607FCFACFE889F989808157
:1009B00085FFF5CFCE010E947E04F1CFEB8DEC0FC9
:1009C000FD2FF11DE35AFF4FF0829FB7F8940B8F74
:1009D000EA89FB8980818062CFCFCF93DF93EC01DE
:1009E000888D8823B9F0AA89BB89E889F9898C9117
:1009F00085FD03C0808186FD0DC00FB607FCF7CFD3
:100A00008C9185FFF2CF808185FFEDCFCE010E94D2
:100A10007E04E9CFDF91CF91089580E090E0892BAB
:100A200049F080E090E0892B29F00E9400008111BC
:100A30000E94000080E090E0892B29F00E9474045D
:100A400081110C9400000895CF93DF93EC0160E0D6
:100A50008E810E94E00281E090E00E946D0361E0DF
:100A60008E810E94E00281E090E00E946D0360E0D0
:100A70008E810E94E00284E690E0DF91CF910C9499
:100A80006D03CF92DF92EF92FF920F931F93CF935C
:100A9000DF936C017C0187E0E80EF11CD0E0C0E040
:100AA000062F10E0B8010C2E02C0759567950A94C8
:100AB000E2F76170F70181917F010E94E0022196C7
:100AC000C430D10579F7C601DF91CF911F910F9105
:100AD000FF90EF90DF90CF900C942405CF92DF929F
:100AE000EF92FF920F931F93CF93DF93EC01F62EBB
:100AF000642F8C810E94E0028D818F3F19F060E0AD
:100B00000E94E0020F2D10E08F8584FF25C06E014A
:100B100087E0C80ED11CF12CE12CB8010E2C02C0CC
:100B2000759567950A94E2F76170F60181916F01FE
:100B30000E94E002FFEFEF1AFF0A88E0E816F104D6
:100B400061F7CE01DF91CF911F910F91FF90EF9050
:100B5000DF90CF900C942405B80184E075956795DB
:100B60008A95E1F7CE010E9441056F2DCE01DF91FC
:100B7000CF911F910F91FF90EF90DF90CF900C9449
:100B8000410540E0682F83EF93E30C946E0590914C
:100B90000634691710F06FEF690FE62FF0E0ED50A3
:100BA000FC4C9489890F80680C94C10581E00E94F7
:100BB000C10580ED97E00C946D03CF93DF938230F5
:100BC00029F4909102349860909302348093063413
:100BD0001092073480E48093083480E180930934D4
:100BE00080E580930A3461E08091F7330E943C03F2
:100BF0008091F8338F3F19F061E00E943C0361E07F
:100C00008091F9330E943C03C3EFD3E39E01235F3D
:100C100033438091023484FD0BC084E090E0219640
:100C20002817390744F461E08E810E943C03EECF1F
:100C300088E090E0F4CF80E593EC0E946D0360E0E3
:100C40008091F7330E94E00260E08091F9330E94C6
:100C5000E0028091F8338F3F19F060E00E94E002DB
:100C60008091023484FD35C063E083EF93E30E94FA
:100C7000410584E991E10E946D0363E083EF93E312
:100C80000E94410584E991E10E946D0363E083EFD6
:100C900093E30E94410586E990E00E946D0362E0C3
:100CA00083EF93E30E9441058091023480620E94A9
:100CB000C10584E0809303348CE00E94C1050E944A
:100CC000D60582E08093043486E0DF91CF910C94C6
:100CD000C10580620E94C10584E991E10E946D0313
:100CE0008091023480620E94C10586E990E00E94F2
:100CF0006D038091023480620E94C105D5CF41E02E
:100D00000E946E0581E090E008950F931F93CF93AA
:100D1000DF938B0128E0829FC001112480640E9430
:100D2000C105E801085F1F4F699183EF93E30E94BB
:100D30007F06C017D107C1F7DF91CF911F910F91A7
:100D4000089541E0682F83EF93E30E946E0581E0F0
:100D500090E00895089585ED8093BC008091BC00DB
:100D600084FDFCCF10929D330895633498F4209154
:100D70009D33243089F460937906282FA7E3B6E0E9
:100D8000FC018E2F821B861710F080E00895819160
:100D90008D93F7CF81E0089582E008950895E09162
:100DA000E1338091E033E81730F4F0E0E256FC4C98
:100DB000808190E008958FEF9FEF08958091E03358
:100DC0009091E133891B990B0895CF92DF92EF92B6
:100DD000FF920F931F93CF93DF937C01CB018A0186
:100DE00020910F33222389F0EB016B01C40ED51E35
:100DF000CC15DD0569F06991D701ED91FC91019069
:100E0000F081E02DC7010995F3CF642F0E94B5064C
:100E1000C801DF91CF911F910F91FF90EF90DF906C
:100E2000CF900895CF93DF931F92CDB7DEB769833C
:100E300020910F332223F9F020915433223458F0BB
:100E400021E030E0FC013383228390E080E00F90CA
:100E5000DF91CF91089580911033E82FF0E0EF5E9D
:100E6000FC4C998190838F5F80931033809354332F
:100E700081E090E0ECCF61E0CE0101960E94B506E2
:100E8000F7CF90E080E0089587FF0AC09CE0980FBC
:100E9000923030F08D3F21F0803F18F4807F08952C
:100EA00080E00895982F9F7E282F2F7C203839F0DE
:100EB000803E29F081E0903C19F080E0089581E0C7
:100EC0000895DC018D919C91DC01ED91FC910190E4
:100ED000F081E02D09941F93CF93DF9321502031AF
:100EE00018F587FF21C0D42F162FC82F622F682B2B
:100EF00080913534909136340E946107612F6F776D
:100F000080913534909136340E946107CF7EC03C89
:100F100059F06D2F6F778091353490913634DF9191
:100F2000CF911F910C946107DF91CF911F9108958C
:100F30006D3F48F46A3F10F4683F39F4FC0180814A
:100F400091810C9461076E3FC8F70895813E10F4BB
:100F50000C946B07883F28F0682F85E394E30C948A
:100F60009807089582E08093B0001092B10010922B
:100F7000B20099EF9093B300809370000895EFE66C
:100F8000F0E080818D7F808310928900109288002C
:100F9000109281001092800008958F929F92AF92DC
:100FA000BF92CF92DF92EF92FF920F931F93CF9356
:100FB000DF93FC0150E040E0C1E0D0E0C12CD12C37
:100FC0007601C39416A215A28E01042E02C0000F52
:100FD000111F0A94E2F7DC01159670E060E02D9194
:100FE0003D9120233123232B81F025A136A14601F9
:100FF0005701062E04C0880C991CAA1CBB1C0A941D
:10100000D2F72829392936A325A36F5F7F4F603196
:10101000710529F74F5F5F4F32964031510591F6C8
:10102000DF91CF911F910F91FF90EF90DF90CF90C4
:10103000BF90AF909F908F9008950F931F93CF9381
:10104000DF93DC0180910C2E811111C080910B2E59
:1010500081110DC0FD01E953FE4F80818093082E60
:1010600080911B2E31979081891B8093092E8D01D1
:101070000B551F4FFD01EB5FFE4F84E24CE62BE664
:1010800030E790E550A1511101C040A3E801288B41
:1010900039938E019193BF01615C7109EB019883D3
:1010A000978757AD511101C087AF8F5F843351F7D8
:1010B0008091082E882351F013968C91139780937A
:1010C000992514968C9114978093982511968C915C
:1010D0008031A9F038F48C3071F0DF91CF911F91FD
:1010E0000F910895883121F08032B9F782E004C071
:1010F0001092CA32F2CF81E08093CA32EECF83E001
:10110000FBCFCF92DF92EF92FF92CF93DF93FC0160
:1011100081A192A123A134A1822B932B908B87874D
:101120008091340190913501049709F44FC0C0912A
:10113000360190E080E0C12CD12C7601C394DCE62E
:10114000A1A1B2A19D01082E02C0369527950A944F
:10115000E2F720FF14C0CE3091F4B701A601082EAB
:1011600004C0440F551F661F771F0A94D2F740959D
:10117000509523A134A12423352334A323A323A1F1
:1011800034A1082E02C0369527950A94E2F720FF75
:1011900018C0CF30B1F4B701A601082E04C0440F27
:1011A000551F661F771F0A94D2F7409550954A2322
:1011B0005B2352A341A3DC01AB5DBE4FAE0FBF1F4B
:1011C000DC9301968031910509F0BACFDF91CF9180
:1011D000FF90EF90DF90CF90089581E080931D2ED7
:1011E000089581E08093152E089581E080931C2E50
:1011F00008958091F632813009F449C020F08230A0
:1012000009F46EC008950E94B2071092283410921B
:10121000273410922A3410922934109230341092CC
:101220002F3410922E3410922D34109212341092CA
:1012300011341092103410920F34109281001092D9
:101240008000809181008A60809381002091FD322E
:101250003091FE3240E6429FC001439F900D112421
:101260006CE370E00E9436489B0150E040E060E88B
:1012700074E88EE190E00E94C74730938900209384
:10128000880080916F00826080936F0008950E94B3
:10129000BF070E94B20784E99BE1909312348093C8
:1012A00011348AE79FE09093103480930F348FE4D9
:1012B00094E290932834809327348DEE98E09093B5
:1012C0002A348093293481EF98E0909330348093CE
:1012D0002F3485EF98E090932E3480932D34089529
:1012E0000E94BF071092B00087E08093B100109277
:1012F0007000109228341092273410922A341092E1
:1013000029341092303410922F3410922E341092CF
:101310002D3484E99BE190931234809311348AE751
:101320009FE09093103480930F341092E506109252
:10133000E4061092E8061092E7061092E30608957C
:101340008FE090E00E946D035F9885E090E00E943E
:101350006D035F9A08958FE090E00E946D035E98A0
:1013600085E090E00E946D035E9A0895645F282FE7
:1013700080E90C946B07645F282F40E080E80C94B0
:101380006B0780915D048823C9F010925D04E091A1
:10139000A5254091AC3229EC31E0429FC001439F2A
:1013A000900D1124865E904DE80FF92FF11DEB5B37
:1013B000FE4F60818091FA320C94BB0908950F931F
:1013C0001F93CF93DF93D0E0C0E0082F10E0C01749
:1013D000D1072CF481EA0E94A1062196F8CFDF9173
:1013E000CF911F910F91089523B143B1E22FE17086
:1013F00020FD10C020914904222361F02091470470
:101400003091480441FF27C02F5F3F4F309348047D
:10141000209347042091F132222339F02AE0AB01D6
:10142000249FB001259F700D1124409145045091D7
:1014300046042091470430914804DA011196A2171E
:10144000B30764F43093460420934504860F971F36
:10145000E0934904089521503109D8CF41505109F2
:1014600024173507ACF73093460420934504861BB8
:10147000970B97FFEDCF90E080E0EACFEF92FF92DD
:101480000F931F93CF93DF93809134019091350197
:10149000209136012C3099F58330910581F5C0916A
:1014A000AC32D0E089EC91E0C89FF001C99FF00D0B
:1014B000D89FF00D1124EE51FF4C808161E070E067
:1014C00090E00E94F40999278E30910514F08DE088
:1014D00090E029EC31E0C29FF001C39FF00DD29F54
:1014E000F00D1124EE51FF4C808320914404281705
:1014F000D1F08093440481E08093E53266C0019787
:1015000009F0C1C08091C7258111BDC0809103330E
:101510008111B9C08091292E813009F459C050F051
:10152000823009F480C0DF91CF911F910F91FF901D
:10153000EF90089580910F2E9091102E2091F1320E
:101540006AE070E0211102C061E070E00E94F409DD
:101550009093102E80930F2E2091042A3091052A0B
:1015600080910F2E9091102E2817390708F4C90189
:10157000883E43E0940710F087EE93E09093102E9E
:1015800080930F2E4091420450914304481759070D
:1015900051F29093430480934204FC01EC5FF94DB7
:1015A00050815093032640911B2E2150310928175A
:1015B000390718F457FF40930326809103264817F4
:1015C00019F081E08093022681E080933701ABCF50
:1015D0008091032690E02091F13260E170E02111CA
:1015E00002C061E070E00E94F409809303268091BC
:1015F000032690E08038910514F08FE790E0282FC3
:10160000809303264091400450914104841795072C
:1016100009F489CF909341048093400480911B2E5C
:101620002813CFCFD1CF8091042A9091052A209101
:10163000F1326AE070E0211102C061E070E00E94C6
:10164000F4099093052A8093042A8091042A9091AA
:10165000052A883EE3E09E0710F087EE93E0909322
:10166000052A8093042A20913E0430913F0482177A
:10167000930709F458CF90933F0480933E0481E090
:101680008093E625A2CF8091F332882309F49CC091
:101690008091292E813009F446C0F8F0833009F09A
:1016A00042CF8091320161E070E090E00E94F40945
:1016B00099278830910514F087E090E080933201FB
:1016C00020913804309139048217930709F42BCF05
:1016D000909339048093380477CF8091AD3290E0B5
:1016E0002091F1326AE070E0211102C061E070E007
:1016F0000E94F4098093AD328091AD3290E084363F
:10170000910514F083E690E08093AD3220913C0483
:1017100030913D048217930709F405CF90933D045F
:1017200080933C0451CFE090AC32F12CC091AD32AB
:10173000D0E089EC91E0E89E8001E99E100DF89ED2
:10174000100D11240C0F1D1F015A1F4CF801808130
:1017500090E02091F1326CE070E0211102C061E074
:1017600070E00E94F409F801808389EC91E0E89E22
:10177000F001E99EF00DF89EF00D1124EC0FFD1F15
:10178000E15AFF4C808190E08038910514F08FE79A
:1017900090E049EC51E0E49E9001E59E300DF49E0E
:1017A000300D1124C20FD31FC15ADF4C8883209102
:1017B0003A0430913B048217930709F4B4CE909316
:1017C0003B0480933A0497CE80910333882309F435
:1017D000FCC080910233813009F080C09091292EA5
:1017E000913009F444C038F1923009F464C0933068
:1017F00009F099CE8091F93261E070E090E00E94AA
:10180000F4099927009709F466C08131910514F015
:1018100080E190E08093F9322091310430913204DC
:101820008217930709F47FCE90933204809331049A
:10183000809337343EC08091F63261E070E090E0F2
:101840000E94F40999278330910514F082E090E01A
:101850008093F63220913704281709F464CE8093E0
:10186000370481E08093F73280930433AECE61E099
:1018700070E08091FF32909100330E94F4098B3F19
:10188000910510F08AEF90E08E31910510F48EE111
:1018900090E0909300338093FF3220913504309193
:1018A00036048217930709F43ECE90933604809352
:1018B000350481E0D9CF2091F83230E040913304F3
:1018C000509134042417350709F42DCE3093340495
:1018D00020933304C9CF81E090E09CCF823009F09F
:1018E00022CE8091292E8130D1F120F1823009F46D
:1018F0004BC0833009F017CE61E070E08091FB327D
:101900009091FC320E94F4098530910510F084E03A
:1019100090E09093FC328093FB3220912B04309125
:101920002C048217930709F4FECD90932C04809326
:101930002B04BFCF8091F53261E070E090E00E940F
:10194000F40921E0892B09F420E02093F5328091FD
:101950003004281709F4E7CD20933004AACF8091F2
:10196000053361E070E090E00E94F40921E0892BEA
:1019700009F420E02093053380912F04281709F4FF
:10198000D2CD20932F0495CF8091FA3261E070E0A0
:1019900090E00E94F40999270097A1F08131910508
:1019A00014F080E190E08093FA3220912D04309180
:1019B0002E048217930709F4B6CD90932E048093DA
:1019C0002D0477CF81E090E0EECF61E070E0809170
:1019D000FD329091FE320E94F4098F31910508F496
:1019E00044C09093FE328093FD328091FD329091FD
:1019F000FE328A3F910530F08AEF90E09093FE32FC
:101A00008093FD322091FD323091FE328091290485
:101A100090912A042817390709F485CD30932A04B8
:101A20002093290440E6429FC001439F900D11245A
:101A30006CE370E00E9436489B0150E040E060E8B3
:101A400074E88EE190E00E94C747309389002093AC
:101A500088008091340190913501039709F0B4CD4D
:101A60008091C7258111B0CD5ECD8EE190E0B9CFD8
:101A7000CF92DF92EF92FF926B017C01C114D104EF
:101A800081E0E806F104D8F480E591E090930F330B
:101A900080935333109210331092543399278F2D23
:101AA0007E2D6D2D87EE93E30E9412076C2D87EE3D
:101AB00093E3FF90EF90DF90CF900C94120784E5B2
:101AC000E4CFAF92BF92CF92DF92EF92FF921F933B
:101AD000CF93DF93C4E0D6E290E0B0E0A0E06C01E9
:101AE0007D018AE0CC0CDD1CEE1CFF1C8A95D1F731
:101AF00080EED80EE11CF11CEAE2C430DE0719F1D9
:101B0000C701B6010E94380D0E94A10184E590E052
:101B1000C114D104F1E0EF06F10410F480E590E087
:101B20000E945B015E0110E40E944801F50181936F
:101B30005F011150C9F7C05CDF4FF0E4CF0ED11C3C
:101B4000E11CF11CD9CF8091022A9091032A909335
:101B5000052A8093042ADF91CF911F91FF90EF9087
:101B6000DF90CF90BF90AF9008954091402E50915C
:101B7000412E90E080E020E0BA01082E02C0769568
:101B800067950A94E2F760FF03C0213031F021E04D
:101B900001968031910581F780E008952091402ED3
:101BA0003091412E90E080E0A901082E02C05695A8
:101BB00047950A94E2F740FD04C0019680319105F3
:101BC00099F70895CF92DF92EF92FF920F931F93B0
:101BD000CF93DF93E0910F04F09110046091402EB9
:101BE0007091412E7093100460930F04E617F7076D
:101BF00009F464C08091A8259091A9252091F00650
:101C00003091F106F09005334091032F50E04423CA
:101C100009F462C040E0C1E0D0E00CED11E0DB016E
:101C2000042E02C0B695A7950A94E2F7A0FF38C02B
:101C3000DF01042E02C0B695A7950A94E2F7A0FD35
:101C40002FC0DA01A453BE4FEC909E010E2C02C0AF
:101C5000220F331F0A94E2F72095309582239323B5
:101C6000ACECB1E02D91E21649F06E0102C0CC0C53
:101C7000DD1C2A95E2F796018C29932B0A171B0786
:101C800089F7DA01AA0FBB1FA455BE4F2D913C91D5
:101C900020953095FF2021F04C30C9F49F773F7D8F
:101CA0004F5F5F4F4031510509F0B9CF9093A9259F
:101CB0008093A8253093F1062093F006DF91CF9111
:101CC0001F910F91FF90EF90DF90CF9008954D30CE
:101CD00039F79F7B3F7EE4CF40E001E010E0DB017D
:101CE000042E02C0B695A7950A94E2F7A0FF27C07C
:101CF000DF01042E02C0B695A7950A94E2F7A0FD75
:101D00001EC0DA01A453BE4FAC91680102C0CC0CD6
:101D1000DD1CAA95E2F7D6018C259B27DA01AA0FD4
:101D2000BB1FA455BE4F0D90BC91A02D2A273B2769
:101D3000FF2029F04C3049F49058A0E23A274F5F39
:101D40005F4F4031510559F6B1CF4D30C1F7A0E496
:101D50009A27A0E13A27F3CFFC011482138281E095
:101D60006115710509F480E080839181891741F044
:101D70009281911107C0672B11F091E093838283C8
:101D800081830895672BD9F791E09483F8CF9091E0
:101D9000BF06992339F080910E04913011F48DBB68
:101DA00008958FBF08958EBD00000DB407FEFDCFCE
:101DB0008EB508952091BF06222359F0213061F499
:101DC0002DB320930E043DB32091BE06209523230E
:101DD0002DBB8CBD9DBD08952FB7F89420930E04A4
:101DE000F8CFCF93DF93803808F08FE790E2899F98
:101DF000E0011124D06180917A3590917B350E9469
:101E0000DA0E5D988D2F0E94D30E8C2F0E94D30E78
:101E10005D9ADF91CF910C94C70EEEEFE80FEE3094
:101E200008F052C0862FF0E0E85EF04F0C945E4858
:101E30003F0F450F4D0F640F580F5E0F260F2E0FEB
:101E4000340F390F640F640F520F520F0E94F10EBE
:101E500082B18F71806482B90C94AB090E94F10E3B
:101E600082B18F718068F7CF0E94F10E82B18F71BD
:101E7000F2CF0E94F10E82B18F71806CECCF0E9484
:101E8000F10E82B18F718062E6CF0E94F10E82B1B5
:101E90008F71806882B90C94A0090E94F10E82B102
:101EA0008F71F8CF0E94F10E82B18F718064F2CFF2
:101EB0000E94F10E82B18F718062ECCF0E94F10E10
:101EC00082B18F71806CE6CF0895E82FF0E0E25A7E
:101ED000FB4F10822091EC063091ED06082E02C0D7
:101EE000369527950A94E2F720FF03C060E00C9432
:101EF0000D0F08959091F93298133EC064526931E4
:101F000008F03AC0E62FF0E0E857F04F0C945E4836
:101F1000A10FAC0FBC0FAE0FA40FBC0FB00FBC0FC6
:101F2000BC0FA60FB20FA80FAA0FB40FBC0FB60FAD
:101F3000BC0FBC0FBC0FBC0FBC0FBC0FBC0FBC0F49
:101F4000B80F88E00C94650F89E0FCCF8AE0FACFE7
:101F50008BE0F8CF82E0F6CF83E0F4CF84E0F2CFDD
:101F60008EE0F0CF8FE0EECF87E0ECCF86E0EACFD7
:101F70008091EC0680FD129A0895CF93DF93EC01D7
:101F800080917A3590917B350E94DA0E2B988D2FB7
:101F90000E94D30E8C2F0E94D30E2B9A0E94C70E44
:101FA000C0936325DF91CF910895EF92FF920F9335
:101FB0001F93CF939091F632923009F041C0E82EF2
:101FC000F12C8701025A1B4FF8019081911138C002
:101FD0002091A8253091A925082E02C03695279575
:101FE0000A94E2F720FD2CC0C82F0E940D0FCF30BD
:101FF00069F58091632590E08D7D80620E94BD0F20
:102000008091B2008093CF068091E9068823A9F0E1
:10201000F701E957FE4F208181E090E002C0880F70
:10202000991F2A95E2F72091DE063091DF06822B78
:10203000932B9093E5068093E40681E0F80180837A
:10204000CF911F910F91FF90EF900895CE3029F41A
:1020500080916325826290E0D1CF2091632581E059
:1020600090E00E2C02C0880F991F0A94E2F7822B91
:102070000E94BD0F8091B200F701E653F94F8083B3
:10208000C3CFFF920F931F93CF93DF93082FF92EA7
:10209000D62F172FC42F80917A3590917B350E94CF
:1020A000DA0E2C988F2D0E94D30E802F0E94D30E13
:1020B000812F0E94D30E8D2F0E94D30E8C2F0E9451
:1020C000D30E2C9ADF91CF911F910F91FF900C941A
:1020D000C70E2F923F924F925F926F927F928F9294
:1020E0009F92AF92BF92CF92DF92EF92FF920F93A7
:1020F0001F93CF93DF9300D000D0CDB7DEB73091E0
:10210000F1328091032F982F990F24E0329F8001A4
:1021100011248091062F58E0859FD0011124409111
:102120009C2580E1489FB00111247A8369838091C6
:10213000BB3220E2829FF00111248091C63250E42C
:10214000859FB00111242091F432892F802B222306
:1021500009F4FEC080688A2B9981892B8E2B862BEF
:102160008093E3068091340190913501813091058F
:1021700009F4FBC051E0009709F050E050935C0473
:102180008330910509F4F4C051E08230910509F0E3
:1021900050E050935B045091DD258430910511F49B
:1021A0005091310150935A045091F332552309F460
:1021B000E2C051E05093590450935804509357048F
:1021C000B091BC25B983B09356045091CA32E1E076
:1021D000F0E002C0EE0FFF1F5A95E2F7E0935504BE
:1021E000B091F23250913601BB2309F4CFC0609117
:1021F000310160935404A091D225A093EB063323C0
:1022000019F061E05C3079F060919323611109C0AD
:102210006091E625611105C060910433662309F4DD
:10222000C2C060913101609353048530910509F07B
:10223000BDC061E06093EA06009103336091C72559
:102240000111609131016093520460915C0410E2CD
:10225000619FB0011124E090590410E4E19E7001E7
:1022600011246E297F29409057046429E090580476
:1022700010E8E19E700111246E297F2940905304DB
:102280007429E0905B04F12CFE2CEE24FF0C6E29E7
:102290007F29E0905A04F12CFE2CEE24FF0CFF0C59
:1022A0006E297F29B980AB2CB12CBA2CAA24BB0C87
:1022B000BB0CBB0C6A297B29C0905404EC2CF12C7C
:1022C000FE2CEE24F29410EFF1226E297F294A2E83
:1022D000512C10E2419E502C44241124642975296C
:1022E0005090EA06A52CB12C10E4A19EB02CAA2493
:1022F00011246A297B29C0905204EC2CF12CFF2474
:10230000E694F794EE246E297F29EE0FFF1FEE7FEF
:10231000F1706E2B7F2B7093E8066093E7065031C7
:1023200008F097C0E52FF0E0E856FE4E0C945E48AA
:10233000921229121A121D12201229128C128F12B7
:10234000ED1111121412171292129212231223126B
:102350009091310181608A2BA9818A2B8E2B862B4B
:10236000979599279795892BFBCE5091310106CFF0
:10237000509131010ECF5091B03250935904509189
:10238000112F50935804109257041ACF833091059F
:1023900019F45D3009F42BCF61E07091EC327111CA
:1023A00028CF60E026CF109253043FCF6091A8253C
:1023B0007091A9251092EA06672B09F43DCF609130
:1023C000E006683030F061E06093EA061092E006C3
:1023D00033CF6F5F6093E0062FCFE3E0F0E0F09340
:1023E0005104E09350048230910509F4F7C008F0DD
:1023F0009EC0009709F4B4C08130910509F4D1C0A2
:10240000002309F44FC28091E606883008F441C3E6
:1024100087E090E09093E5068093E4061092E6064C
:1024200041C2ECE0F0E0DBCFE0E3F0E0D8CFE0EC5D
:10243000F0E0D5CFE0E0F3E0D2CFE0E0F4E0CFCFC2
:10244000E0E0F8E0CCCFE0E0F0E3F0935104E0937B
:102450005004BB2341F25D3031F6E091AC3289EC9F
:1024600091E0E89FA001E99F500D1124465E504D78
:10247000DA018C911091502E90E0F0E0E0E01A012A
:10248000BFE12B0E311C812C912C54018394692EB9
:10249000712CD101CD90DC90092E02C0D694C79446
:1024A0000A94E2F7C0FE1DC06A01C60CD71CBBEB44
:1024B000CB1ABEEFDB0AD601DC90D11212C0332357
:1024C00021F0B0910001BB2361F07501640104C0EB
:1024D000CC0CDD1CEE1CFF1C6A94D2F72601EC2903
:1024E000F5299F5F891798F6F093E506E093E406D7
:1024F000222309F485CF809100012091A52590E049
:1025000002C0880F991F2A95E2F78E279F27909384
:10251000E5068093E40674CFE0E0F0E860CFE0E009
:10252000F0E45DCF109251041092500492CF8530A8
:10253000910508F4D7C0059709F062CF8091F006A5
:102540009091F1069093E5068093E40680912C2EFD
:10255000882309F455CF1092F1061092F00650CF5F
:1025600030910E2E2223A1F0209100014091A5254B
:1025700081E090E002C0880F991F3A95E2F730E0C1
:1025800002C0220F331F4A95E2F782279327BFCF5D
:102590008091310190E002C0880F991F3A95E2F7CF
:1025A000B6CFAA2351F02091B82581E090E002C077
:1025B000880F991F2A95E2F7AACF3091DC32332396
:1025C00019F020910E2EF3CF30911B2E3F70222355
:1025D000F9F2209100014091A525CCCFA111E3CFC4
:1025E0008091082E222309F446C08823C9F1209146
:1025F000092E2F7030E050E040E090E0812C912CCB
:1026000054018394F901E90FF11D7501640104C0BF
:10261000CC0CDD1CEE1CFF1CEA95D2F74C295D2981
:102620009F5F891778F78091310120910001E09137
:10263000A52591E09827892F90E030911B2E3F70BF
:1026400002C0880F991F3A95E2F7809590958423F0
:10265000952330E002C0220F331FEA95E2F795CFB1
:1026600080913101209100014091A52590E03091A9
:1026700003263F707FCF882371F12091092E2F70A0
:1026800030E050E040E090E0812C912C54018394A4
:10269000F901E90FF11D7501640104C0CC0CDD1CCA
:1026A000EE1CFF1CEA95D2F74C295D299F5F891724
:1026B00078F78091310191E0892790E020910326FD
:1026C0002F7002C0880F991F2A95E2F78095909588
:1026D000842395231CCF8091310190E020911B2E03
:1026E0002F7065CF332301F12091E60680915004CD
:1026F00090915104283028F09093E5068093E406E9
:10270000CBC05F3051F485759D7F9093E506809333
:10271000E4062F5F2093E60673CE3091B525311184
:10272000F4CF85759D7DF1CF442379F18091E60644
:10273000883018F08FE79FEFDFCF9091AC3229EC13
:1027400031E0929FF001939FF00D1124E65EF04D71
:1027500043814150550B21E030E0790102C0EE0C7D
:10276000FF1C4A95E2F7A7019481985F02C0220FEF
:10277000331F9A95E2F72E29352B3093E5062093E7
:10278000E4068F5F8093E6063BCE222309F4E7C080
:10279000852F90E04091AC3229EC31E0429FF0016E
:1027A000439FF00D1124DF01A65EB04D8C90912C5B
:1027B0007090B5255C01A4E0AA0CBB1CAA95E1F7BA
:1027C000AE0EBF1E30E020E0B0E0A0E050E040E000
:1027D000C12CD12C7601C3942C01440C551C4E0EF7
:1027E0005F1EF201E15EF04DFC83EB83FC01E450DF
:1027F000FE4FFA83E983C9018A0D9B1D815A904DD2
:10280000FC011081772009F46BC017FF88C0EB81B1
:10281000FC8180819181022E02C0969587950A9451
:10282000E2F7817099271F77E981FA81508051166C
:1028300008F065C0892B61F016012701022E04C043
:10284000220C331C441C551C0A94D2F742295329EC
:102850002F5F3F4F8216930674F650934D044093BA
:102860004C04B0934F04A0934E042091E60680914F
:102870000001233008F464C02091A52590E002C037
:10288000880F991F2A95E2F7A827B9274A2B5B2BB7
:102890005093E5064093E4061092E6068091E60622
:1028A0000111F7C04091E3068091E4069091E5069E
:1028B0000F900F900F900F90DF91CF911F910F917C
:1028C000FF90EF90DF90CF90BF90AF909F908F9050
:1028D0007F906F905F904F903F902F900C9441109D
:1028E00017FD1DC0EB81FC8180819181022E02C009
:1028F000969587950A94E2F78170992795CF892B51
:1029000009F4A6CF16012701022E04C0220C331CA5
:10291000441C551C0A94D2F7A229B32999CF160159
:102920002701022E04C0220C331C441C551C0A949F
:10293000D2F72094309442215321A221B32188CF91
:102940003091A52590E002C0880F991F3A95E2F7D3
:10295000482759275093E5064093E406DACEA111A3
:1029600022CEBB2309F453C04091AC3229EC31E0B4
:10297000429FC001439F900D1124FC01E65EF04D83
:10298000678C70A0E091502E30E020E050E040E0F5
:10299000C12CD12C7601C394D301022E02C0B6956E
:1029A000A7950A94E2F7A0FF15C04C01820E931E72
:1029B000D401A15ABF4C1C911E130CC046015701F3
:1029C000022E04C0880C991CAA1CBB1C0A94D2F7C6
:1029D000482959292F5F3F4F20313105E9F6909161
:1029E000E606933060F08091310190E0EF7002C014
:1029F000880F991FEA95E2F7842B952B7DCE509393
:102A0000E5064093E4069F5F9093E606F9CC80913B
:102A1000082E40911B2E4F70882391F12091092E92
:102A20002F70B0E0A0E0F0E0E0E090E030E0812C3A
:102A3000912C540183948E179F079CF02F01420E16
:102A4000531E5A82498275016401098004C0CC0C6E
:102A5000DD1CEE1CFF1C0A94D2F7AC29BD2931966F
:102A6000EACF8091310191E0892790E002C0880F80
:102A7000991F4A95E2F7809590958A239B2347CD2D
:102A80008091310190E002C0880F991F4A95E2F7CA
:102A90003ECD409102334150550B21E030E002C061
:102AA000220F331F4A95E2F73093E5062093E406A0
:102AB0008F5F8093E606F6CE0F931F930E94CF039D
:102AC00000912504109126042091270430912804B8
:102AD000601B710B820B930B6630710581059105AC
:102AE00008F44BC00E94CF03609325047093260422
:102AF000809327049093280480917A3590917B35B8
:102B00000E94DA0E5C9A80E00E94D30E80931B0430
:102B100080E00E94D30E80931D0480E00E94D30EBB
:102B200080931F0480E00E94D30E8093210480E0F4
:102B30000E94D30E809323045C980E94C70E83B139
:102B400082FB882780F980931904EBE1F4E030E000
:102B500020E090814181941304C0D901A05CB14D63
:102B60009C932F5F3F4F32962530310591F790911E
:102B70001A04891302C08093DD0680917A35909102
:102B80007B350E94DA0E5C9A80E00E94D30E80931F
:102B90001C0480E00E94D30E80931E0480E00E94FB
:102BA000D30E8093200480E00E94D30E80932204F1
:102BB00080E00E94D30E809324045C980E94C70E8C
:102BC00083B182FB882780F980931A041F910F91AB
:102BD0000895CF92DF92EF92FF920F931F93CF93BE
:102BE000DF930E945C15C091422ED091432E10912C
:102BF000442E81E00C2F0071C4FF80E08093F132FD
:102C0000C3FB882780F98093032F6C2F647070E0DA
:102C100084E09FE20E94AC0E6D2F687070E083EF3D
:102C200095E20E94AC0E6D2F607870E087EE95E221
:102C30000E94AC0E6D2F607470E08BED95E20E94E7
:102C4000AC0E6D2F607270E08AEB95E20E94AC0EC4
:102C50006C2F607870E08EE19EE20E94AC0E6C2FCB
:102C6000617070E08FEC92E30E94AC0E6D2F60718A
:102C700070E086EE92E30E94AC0E6C2F627070E002
:102C800084EC92E30E94AC0E6C2F607470E089EBD0
:102C900092E30E94AC0EC0726C2F70E08AE995E25C
:102CA0000E94AC0E6D2F647070E08EEA92E30E9479
:102CB000AC0E6D2F627070E08FE09FE20E94AC0E50
:102CC000612F647070E085EC95E20E94AC0E6D2F70
:102CD000617070E08AED92E30E94AC0E612F627029
:102CE00070E085E39EE20E94AC0E612F617070E09F
:102CF00080ED95E20E94AC0E6091DD0670E08AE204
:102D00009EE20E94AC0E6091402E7091412E85E4AF
:102D10009EE20E94AC0E1092AE251092AD25C1E04D
:102D2000812F887013FFC0E0C093AA259091AB2536
:102D3000C917A9F09091AC25911152C0882369F070
:102D400081E08093AD250E94CF036093B1257093FD
:102D5000B2258093B3259093B425C093AC25C0933E
:102D6000AB258091AC258823B1F00E94CF03C090A1
:102D7000B125D090B225E090B325F090B4256C1920
:102D80007D098E099F09693E73408105910518F000
:102D900081E08093AF25002389F08091E932882378
:102DA00069F08091F23291E089278093F232882392
:102DB00029F08DE08093360190933701E1E5FEE242
:102DC000138214823B968FE2E130F807C9F7DF9156
:102DD000CF911F910F91FF90EF90DF90CF900895CA
:102DE0008111BBCF81E08093AE251092AF25B5CF86
:102DF0008F929F92AF92BF920F931F93CF93DF93C7
:102E0000CDB7DEB7A1970FB6F894DEBF0FBECDBF2A
:102E100019A2423008F44AE08E010F5D1F4F842E44
:102E2000912CB12CA12CA50194010E94F947E62F09
:102E3000B901CA01EA3044F5E05DD801EE938D0195
:102E4000232B242B252B79F790E080E0109769F055
:102E5000FD0101900020E9F73197AF014A1B5B0BA0
:102E6000BD0183EF93E30E940A04A1960FB6F89484
:102E7000DEBF0FBECDBFDF91CF911F910F91BF90ED
:102E8000AF909F908F900895E95CD7CF009769F03D
:102E9000FC0101900020E9F73197AF01481B590B65
:102EA000BC0183EF93E30C940A0490E080E0089562
:102EB00060E084E00E94C7058CE392E00C94461722
:102EC0008091F732882321F00E94F9081092F7329E
:102ED00080910433882309F44CC08091AD25882368
:102EE00009F447C080910233833009F442C060E0A6
:102EF00070E281E090E00E94380D6091F63287EE3A
:102F000093E30E9412076091FF3287EE93E30E94E1
:102F100012076091F83287EE93E30E9412076091E6
:102F2000F93287EE93E30E9412076091F53287EE43
:102F300093E30E9412076091053387EE93E30E94AA
:102F400012076091FA3287EE93E30E9412076091B4
:102F5000FB3287EE93E30E9412070E94A10165E015
:102F600070E080E090E00E949D03109204330E9484
:102F7000581780910333882311F1809102338330F5
:102F8000F1F480912D2E8823D1F00E94D60560E0C7
:102F900080E00E94C70585E492E00E94461761E048
:102FA00080E00E94C70586E592E00E94461760ED2A
:102FB00077E080E090E00E949D030C9400008091F7
:102FC0000333811102C010920433089587E692E022
:102FD0000C944617EF92FF921F93CF93DF93D091FB
:102FE0003734D13140F010E0812FDF91CF911F9124
:102FF000FF90EF900895E0913534F0913634808160
:103000009181DC01ED91FC910084F185E02D099521
:10301000892B49F38091DA348E7F8093DA34E09102
:103020003534F091363480819181DC01ED91FC9151
:103030000284F385E02D0995C82F8D3FA1F2809180
:103040003F3490914034009709F0F7C0C0933A3470
:1030500010913834812F0E9444070E945207882320
:1030600061F0C7FD0AC010933A34C0933B3481E04D
:1030700090E09093403480933F34C0913A348C2F49
:103080000E944407813F09F4A1C0C8F5803B39F094
:1030900048F4803921F0803A11F0803851F423E06F
:1030A00030E096C0803D09F491C0D0F4803C09F432
:1030B0008DC08091DA3481608093DA34E0910D34F0
:1030C000F0910E34309709F0099510924034109227
:1030D0003F3410923E3410923D341092383483CFF6
:1030E000803EE9F2803F29F720E830E030933E341B
:1030F00020933D341092383480934A346DC0873F1A
:1031000099F308F05CC0833F09F460C040F2863F49
:1031100081F68093473410924634109248341092CE
:10312000493481E08093CA341092403410923F3485
:1031300010923E3410923D3480914734803939F4F6
:1031400080914934811103C080E880934734809195
:1031500047348058813638F480914634D81719F0B6
:1031600010E0D11103C00E94FA0111E090914534A2
:10317000392F317090FF38CF892F8E7F09F434CFEB
:103180008091473420E8280F213608F02AC1209189
:103190004634D21719F031E0D11130E096959230D3
:1031A00009F418C1933009F419C1913009F01CCF0A
:1031B00040914934609148340E94A60715CF8D3F55
:1031C00008F4A7CF8E3F08F0A4CF73CF22E030E001
:1031D00030933E3420933D3420913F34309140343D
:1031E00040913D3450913E344150510924173507E8
:1031F000E8F080934734CF70CF5FC093463480911E
:103200003B34809348341092493481E090E09093AD
:10321000CC348093CB341092403410923F341092CF
:103220003E3410923D348093CA3486CF2F5F3F4F97
:103230003093403420933F34D6CEC7FF0CC0CD3FEF
:1032400008F04BC0C83F08F04BC0C03F09F457C05E
:10325000C73F09F454C020913A34FC01E55FFB4CB0
:10326000203F19F0273F09F073C0C7AFE0903D340D
:10327000F0903E349701215031098217930708F4EA
:10328000A7C010913A34103F19F0173F09F062C0FF
:10329000C091C93480EF8093C9348093473480E86B
:1032A00080934834109249341092463480E890E07C
:1032B0009093CC348093CB3481E08093CA340E94C5
:1032C000FA0187EF80934A34C0934B3482E090E058
:1032D0009093403480933F3486CECE3F08F4BBCFEA
:1032E000C0934734109248341092493410924634B7
:1032F00081E090E09093CC348093CB3494CF2091B4
:103300004A34203F19F0273F09F0D3CE9C012F5FAC
:103310003F4F855F9B4CFC01C7AF80EF80934734E4
:103320002093483430934934109246343093CC344F
:103330002093CB3481E08093CA34109240341092B1
:103340003F3410923E3410923D3410923834F4CE13
:10335000C7A78CCF812F0E944407C82F8093473482
:103360000E945207882349F1812F8F708F5F8093CD
:10337000463480913B348093483480913C34F3E070
:10338000EF16F10409F080E0809349341092403444
:1033900010923F3410923E3410923D3481E080937D
:1033A000CA34C03B39F060F4C03921F0C03A11F0A2
:1033B000C03859F610933834BFCE10924634D9CF66
:1033C000C03DC1F3C03EB1F3C03C09F0BECFF2CF67
:1033D00001967ECF332309F407CEEACE311104CE15
:1033E000E7CEE0E1E80FE03108F0FECDF0E0E55097
:1033F000F64E0C945E48111A5E1A401A2E1AF417F3
:10340000F4170B1AF4170B1AF4170B1A0B1A0B1AE2
:10341000F4170B1A0B1A682F85E394E30E949807A0
:10342000E3CDE0904834F090493481E8E816F104A7
:1034300018F090E8E92EF12CCBE0D4E3CE018B50CC
:1034400094438E159F0508F0CFCD6FAD8091353434
:10345000909136340E9461072196F0CFC091483494
:1034600063EF80913534909136340E9461076C2F60
:103470006F7780913534909136340E946107B4CDD6
:10348000C0914934A0E8CA9FE001112480914834DA
:10349000C82B62EF80913534909136340E946107D9
:1034A0006C2F6F7780913534909136340E9461078C
:1034B000CC0FCD2FCC1FDD0BD195D9CF60914834E7
:1034C000B0E16B9FB00111246077C0914934CF7097
:1034D000C62B61EF80913534909136340E9461079C
:1034E0006C2FC7CF2F923F924F925F926F927F9235
:1034F0008F929F92AF92BF92CF92DF92EF92FF9204
:103500000F931F93CF93DF9300D000D01F92CDB7BE
:10351000DEB7883008F087E08295807F282F30E082
:10352000A0ECB1E00E941B486B017C0183EF682E88
:1035300086E0782E83E893E29B838A83C701B601F5
:103540000E94380D0E94A10180E590E00E945B017D
:1035500003E714E0EEE6F4E0FD83EC830E9448010B
:10356000B82E0E944801382E212CC1018B29F80168
:10357000819391938F01F4E003391F0779F70E943B
:10358000480180936E040E94480180936F040E945A
:10359000480180937104809399250E94480180938B
:1035A0007204809398250E944801809333060E94FC
:1035B0004801809334060E944801809335060E949A
:1035C00048018093360608E110E00E94480101504E
:1035D0001109D9F70E94EA17C701B601605C7F4F55
:1035E0008F4F9F4F0E94380D0E94A10180E590E00F
:1035F0000E945B0103EB15E00E944801F8018193F2
:103600008F01F5E0033F1F07B9F70E94EA17C701D2
:10361000B60160587F4F8F4F9F4F0E94380D0E9418
:10362000A10180E590E00E945B0103EF15E00E949C
:103630004801F80181938F01F6E003331F07B9F7C2
:103640004601570120EC820E911CA11CB11C0E9466
:10365000EA17C501B4010E94380D0E94A10180E55E
:1036600090E00E945B014C805D8084E0898310E0E3
:1036700000E00E944801F801EB5BFF4FE40DF51DEF
:1036800080830F5F1F4F0031110599F79981915089
:103690009983E0E14E0E511C9111E9CFF0E48F0EB9
:1036A000911CA11CB11C8C819D81805C9F4F9D83CE
:1036B0008C838E56954059F689EC91E0EEE6F4E065
:1036C000D30101900D920197E1F7EA81FB811192FC
:1036D000FB83EA83F0ECCF0EF1E0DF1EE11CF11C6E
:1036E00027E3621A2EEF720A83E8681683E27806EF
:1036F00009F024CF109293230F900F900F900F900A
:103700000F90DF91CF911F910F91FF90EF90DF907D
:10371000CF90BF90AF909F908F907F906F905F9071
:103720004F903F902F900895962F642F442309F4D3
:103730007EC02091F93228137EC09F3251F1A0F44F
:10374000983219F150F4953241F1973241F19432A7
:1037500009F071C088E00C94D50F9D32C1F008F5D6
:103760008EE09A32C1F308959C33F9F038F4913326
:10377000D1F088F086E0933371F308959534B8F072
:1037800088EB890F8031A0F1089589E0E4CF8AE0C9
:10379000E2CF8BE0E0CF82E0DECF83E0DCCF84E0DD
:1037A000DACF8FE0D8CF87E0D6CF129A0895209154
:1037B00034013091350122303105E9F583EC890F70
:1037C0008093B82520911B2E982F9295907F322FB1
:1037D0003F70930F90930326291769F10E94721A84
:1037E00081E080930226809337011092082E08957D
:1037F000209134013091350122303105E1F460919E
:10380000B8256295607F6854960F90930326809147
:103810001B2E981781F090931B2E81E08093022637
:10382000809337011092082E10920C2E089540E0DC
:10383000692F0C947A0F0895CF92DF92EF92FF9246
:10384000CF93DF936C01990FEE08FF08F7FE17C0C6
:103850008DE20E94A106EC0166277727CB016C1947
:103860007D098E099F094AE00E94F8168C0F9D1F62
:10387000DF91CF91FF90EF90DF90CF9008954AE0D5
:10388000C701B601DF91CF91FF90EF90DF90CF900D
:103890000C94F81665E083EF93E30E947F0688E7B7
:1038A00092E00E9446178091F63281110DC060911E
:1038B000FD327091FE3290E080E04AE00E94F816FE
:1038C00085E792E00C9446178BED0E94A1068BEDE4
:1038D0000E94A1068BED0E94A106F2CFFF920F93EA
:1038E0001F93CF93DF93CDB7DEB728970FB6F89429
:1038F000DEBF0FBECDBF8091C7258823A1F0809188
:10390000340190913501029771F08091032F81115C
:103910000AC080910333811106C061E08BE00E94F0
:10392000C7050E944A1C80913701882309F465C0AD
:103930001092370180910333882309F4EDC060E0D1
:1039400080E00E94C70580910233823009F461C093
:10395000833009F4D0C0813009F04FC08AE792E08B
:103960000E9446170091292E10E0F801ED57FE4FF6
:1039700060E080810E94C705000F111FF801E55823
:10398000FE4F808191810E94461761E080E00E9495
:10399000C7050E94E61761E080E00E94C705E0913C
:1039A000F632F0E0EE0FFF1FEA56FE4F659174917C
:1039B000CE0101960E94C047CE0101960E94461793
:1039C00061E084E00E94C7056091FF32709100338E
:1039D00090E080E04AE00E94F81661E089E00E94F1
:1039E000C70561E08DE00E94C7056091F93270E083
:1039F00090E080E04AE00E94F81628960FB6F8940E
:103A0000DEBF0FBECDBFDF91CF911F910F91FF9011
:103A100008958BE892E00E94461784E992E00E94A4
:103A2000461789E992E00E9446170091292E10E07E
:103A3000F801ED57FE4F60E080810E94C705000F3E
:103A4000111FF801ED58FE4F808191810E944617A9
:103A500061E080E00E94C7050E94E61761E080E017
:103A60000E94C705E091F532F0E0EE0FFF1FEE5621
:103A7000FE4F65917491CE0107960E94C047CE011A
:103A800007960E94461761E084E00E94C705E09116
:103A90000533F0E0EE0FFF1FE257FE4F6591749182
:103AA000CE0104960E94C047CE0104960E9446179C
:103AB00061E088E00E94C7056091FA3270E090E012
:103AC00080E04AE00E94F81661E08CE00E94C705A1
:103AD000E091FB32F091FC32EE0FFF1FEC57FE4FEE
:103AE00065917491CE0101960E94C047CE01019666
:103AF0000E94461782CF8EE992E00E94461761E04D
:103B000080E00E94C7050E94E61761E080E00E9405
:103B1000C70580EB92E0ECCF8091F632823079F4E9
:103B200060E080E00E94C70582EC92E00E944617A8
:103B300061E080E00E94C70587E692E0D9CF8091DE
:103B40003401909135018230910509F472C008F07A
:103B50005CC0009709F491C2019709F04ECF60E074
:103B600080E00E94C70583E493E00E94461700911D
:103B7000292E10E0F801ED57FE4F60E080810E9491
:103B8000C705000F111FF801ED59FE4F808191818B
:103B90000E94461761E080E00E94C7050E94E61778
:103BA00061E080E00E94C70560910F2E7091102E99
:103BB0006F5F7F4F90E080E04AE00E94F81661E07E
:103BC00084E00E94C70510911B2E103809F043C2F3
:103BD00084E593E00E94461761E088E00E94C705F3
:103BE0006091042A7091052A90E080E04AE00E94EA
:103BF000F81661E08DE00E94C70580910E2E90E0DE
:103C000001960E941C1C81E03DC08530910508F49E
:103C1000E3C1059709F0F1CE80914A04823049F062
:103C200008F0D7C1882309F428C2813009F497CF5E
:103C3000E4CE60E080E00E94C70583ED92E00E9440
:103C4000461761E080E00E94C7050E94E61761E028
:103C500082E00E94C70580911B2E182F1F701093C1
:103C60004B0482958F708F5B0E94A106812F90E09C
:103C700001960E941C1C61E089E00E94C7050E9419
:103C80004A1C82E080934A04B8CE80919C25882308
:103C9000F1F160E080E00E94C70587EF92E00E94AA
:103CA000461760E089E00E94C70587E00E94DF09AF
:103CB0008091AC3209EC11E0809FF001819FF00D02
:103CC0001124E65EF04D838160E0885F0E94C705A5
:103CD0008BED0E94A10661E080E00E94C70588E0AC
:103CE00093E00E94461761E088E00E94C70588E0E3
:103CF0000E94DF098091AC32809FF001819FF00D1E
:103D00001124E65EF04D848161E0885F9DC1809161
:103D1000F33260E0882309F4A2C080E00E94C70566
:103D200089E193E00E9446170091292E10E0F801E6
:103D3000ED57FE4F60E080810E94C705000F111F04
:103D4000F801E559FE4F808191810E94461761E09C
:103D500080E00E94C7050E94E61761E081E00E94B2
:103D6000C7058091AD3290E001960E941C1C61E075
:103D700084E00E94C7052091AC32E091AD3209EC9D
:103D800011E0209FC001219F900D1124865E904D6F
:103D9000E80FF92FF11DEB5BFE4F80815CE0F52E03
:103DA0006F2D0E942A48E92FF0E0EE0FFF1FE45923
:103DB000FE4F65917491CE0104960E94C047CE01DA
:103DC00004960E9446172091AC32E091AD32209FBC
:103DD000C001219F900D1124865E904DE80FF92FB0
:103DE000F11DEB5BFE4F80816F2D0E942A4890E011
:103DF0000E941C1C61E089E00E94C7058091AC32E2
:103E0000809FF001819FF00D1124E65EF04D20911E
:103E1000AD32878D90A102C0969587952A95E2F7DD
:103E200080FF1AC08AE293E00E94461761E08DE0AD
:103E30000E94C705E0913201F0E0EE0FFF1FE45A47
:103E4000FE4F65917491CE0101960E94C047CE014C
:103E500001960E944617FDC08EE293E0E5CF80E018
:103E60000E94C70582E393E00E94461761E080E06C
:103E70000E94C7050E94E61761E080E00E94C70526
:103E80001091B82581E4810F0E94A10680911B2E1C
:103E900090E020E1129F80199109112401960E945F
:103EA0001C1C61E085E00E94C7058091AC3209ECE2
:103EB00011E0809FF001819FF00D1124E65EF04D2E
:103EC000808190E001960E941C1C61E088E00E94C5
:103ED000C7058091AC32809FF001819FF00D1124C5
:103EE000E65EF04D8181803109F45DC008F044C088
:103EF0008C3009F44DC061E08CE00E94C705E09170
:103F00003601F0E0EE0FFF1FE45CFE4F6591749107
:103F1000CE0104960E94C0478091B525882319F0F0
:103F20008D81805E8D83809136018D3009F04EC089
:103F30008091F232882309F449C08091502E1CE010
:103F4000612F0E942A48E92FF0E0EE0FFF1FE4598D
:103F5000FE4F65917491CE0101960E94C047CE013B
:103F600001960E9446178091502E612F0E942A4888
:103F700090E00E941C1C6DC0883109F1803209F06C
:103F8000BACF60E083EF93E30E947F0663E011C045
:103F900060E083EF93E30E947F0664E083EF93E3A6
:103FA0000E947F06A8CF60E083EF93E30E947F0624
:103FB00061E083EF93E30E947F0662E0EFCF60E071
:103FC00083EF93E30E947F0661E0E8CFCE01049681
:103FD00040CF853008F011CD809136018C3009F04A
:103FE00054CE60E080E00E94C70584EE92E00E941B
:103FF000461761E080E00E94C7050E94E61761E075
:1040000080E00E94C70588E792E00E94461761E0C1
:1040100081E00E94C7058EE00E94DF0961E08FE029
:104020000E94C70585EF92E00E9446172091AC32AE
:1040300089EC91E0289FF001299FF00D1124EE51A9
:10404000FF4C808161E08F5F0E94C7058BED0E946D
:10405000A10683E017CE012F02950F7081E4800F37
:104060000E94A106812F90E020E1029F8019910912
:10407000112401960E941C1CAFCD60E080E00E94DC
:10408000C70588E593E00E94461760E08DE00E9436
:10409000C70580910E2E90E001960E941C1C61E0E5
:1040A00080E00E94C7050E94E61761E080E00E9460
:1040B000C70589E693E00E9446178091FF2590E0AE
:1040C00001960E941C1C61E088E00E94C7058EE6F4
:1040D00093E00E94461710911B2E103839F484E5A6
:1040E00093E00E94461710924A0487CC012F029554
:1040F0000F7081E4800F0E94A106812F90E020E1E3
:10410000029F80199109112401960E941C1CEBCF7B
:104110007F928F929F92AF92BF92CF92DF92EF9257
:10412000FF920F931F93CF93DF938091180421E0A8
:1041300082278093180480911A2E90E060E370E04B
:104140000E944A48892B29F480913101822780936B
:10415000310180911A2E9091AC3229EC31E0929F7E
:10416000F001939FF00D1124E65EF04D618166959C
:104170000E942A48911102C0109200018091F632EB
:1041800081110DC080911A2E837009F01FC3119AFE
:104190008091C80085FFFCCF88EF8093CE0080918E
:1041A000F432882309F4F9C280911A2E4091AC327E
:1041B00050E029EC31E0429FF001439FF00D529F07
:1041C000F00D1124E65EF04D3181632F0E942A48E4
:1041D000832F8695981305C08091132E8F5F80934F
:1041E000132E89EC91E0489FF001499FF00D589FF4
:1041F000F00D1124E65EF04D20818091132E2817DA
:1042000010F41092132E109217041092160480913D
:104210001A2E632F0E942A48911103C081E08093D7
:10422000150480911A2EE091172E69EC71E0469FDB
:10423000D001479FB00D569FB00D1124A65EB04D22
:1042400013964C914150550B440F551FE40FF52F19
:10425000F11DEE0FFF1FE95BFE4F40815181840F7E
:10426000952F911D632F70E00E944A48892B09F019
:1042700094C280911504882309F48FC2109215040A
:104280008091172E91E089278093172E909300013B
:1042900080910133813009F4BFC208F4AFC282308B
:1042A00009F49CC2833009F4BDC22091AC3230E0E5
:1042B00089EC91E0289FB001299F700D389F700D07
:1042C000112450E040E0C091A525A0911604B091C2
:1042D0001704FA01EE0FFF1FE60FF71FE65EF04D21
:1042E0008581968102C096958795CA95E2F781707F
:1042F0009927042E02C0880F991F0A94E2F78A2B8F
:104300009B2B90931704809316044F5F5F4F4031AF
:104310005105C9F66091A5254091160450911704E6
:104320008091EE069091EF0602C0969587956A956A
:10433000E2F763E0880F991F6A95E1F78870992783
:10434000842B952B9093170480931604409198002A
:104350005091990089EC91E0289FF001299FF00D80
:10436000389FF00D1124E65EF04DE481F0E0EE0F91
:10437000FF1FE456FE4F808191814817590721F0B5
:10438000909399008093980080911604909117045F
:10439000892B09F428C18091160490911704C091CB
:1043A000A825D091A925C095D095C823D92340919F
:1043B000A52589EC91E0289FF001299FF00D389FF9
:1043C000F00D1124E65EF04D858D968D02C0969518
:1043D00087954A95E2F7712C80FF05C0E853FE4FA0
:1043E0007080770C770CA2E4CA2EA1E0DA2EB7E930
:1043F000EB2EB1E0FB2E1CE9812E11E0912E8701FE
:1044000089ECA82EBB24B394F60141916F01842F4F
:1044100090E09E01042E02C0369527950A94E2F79B
:1044200020FD04C0D7FF24C04E3011F52091AC32DE
:1044300030E0E091A525D7FF00C24E3009F0FDC164
:104440002A9DC0012B9D900D3A9D900D1124865EF2
:10445000904DE80FF92FF11DEB5CFE4F8081870D29
:104460000E94F10E82B18F71806482B90E94A0090E
:104470000F5F1F4F8016910639F60DE311E052E4ED
:10448000852E51E0952E69ECC62EDD24D394AA2406
:10449000A394B12CF80131918F01832F90E0AE01EC
:1044A000032E02C0569547950A94E2F740FF37C0A5
:1044B000E091A5252091AC3244E0880F991F4A95E0
:1044C000E1F72C9DA0012D9D500D1124840F951F07
:1044D000865E904DE80FF92FF11DEB5BFF4F808159
:1044E00087FF12C04091120450911304B50102C01D
:1044F000660F771F3A95E2F79B01242B352B3093FB
:104500001304209312048F77870D0E94F10E82B15D
:104510008F71F7019081892B82B90E94AB09FFEF5F
:10452000EF1AFF0A8016910609F0B4CF8091A825F2
:104530009091A925209116043091170436FF02C0EE
:1045400096FD9AC1209116043091170437FD97C14A
:104550009C014091AC3250E0A091A52569EC71E03E
:10456000469FF001479FF00D569FF00D1124E65E27
:10457000F04D61A172A102C076956795AA95E2F708
:1045800060FF02C096FF7FC16091A525A9ECB1E054
:104590004A9FF0014B9FF00D5A9FF00D1124E65EEB
:1045A000F04D43A154A102C0569547956A95E2F794
:1045B00040FD6DC180911604909117044091140440
:1045C0002095309582239323842B0E94BD0F85E094
:1045D0008093B1008091120490911304892B19F0FB
:1045E0008BE0809391002091A5253091AC3289EC2D
:1045F00091E0389FF001399FF00D1124E65EF04DF7
:104600008581968102C0969587952A95E2F780FF6D
:1046100004C0129881E08093E6332091A525809113
:10462000AC3209EC11E0809FF001819FF00D112464
:10463000E65EF04D878D90A102C0969587952A95EC
:10464000E2F780FF5AC00E94C109C091AC32D0E0AD
:10465000A091A525C09FF001C19FF00DD09FF00D46
:104660001124E65EF04DAE0FBF2FB11DAB5EBE4F05
:104670008C91882309F441C0A091A525AE0FBF2FCE
:10468000B11DAB5EBE4F2C913091A525858D968DC9
:1046900002C0969587953A95E2F740E180FD13C0F8
:1046A00030E050E040E02951310941095109A0E3CF
:1046B000B0E00E94E64729E130E040E050E00E948F
:1046C000C7474FE3420FE091A52529EC31E0C29F97
:1046D000C001C39F900DD29F900D1124865E904D16
:1046E000E80FF92FF11DEB5BFE4F60818091FA32EC
:1046F0000E94B60981E080935D048091142E8F5F43
:104700008093142E8091AC329091142E29EC31E0DC
:10471000829FF001839FF00D1124E65EF04D208111
:10472000291708F0B9C091E0909311049093FE25E9
:104730001092142E20910F2E3091102E2093FF25D1
:1047400040913401509135014115510549F0609176
:10475000002670910126672B49F44530510531F44C
:104760002F5F3F4F3093102E20930F2E90910A2EE3
:104770009F5F90930A2E91E0909337012091F2066B
:10478000222359F01092F2061092162E8927809358
:10479000AC328091032680931B2E80911A2E8F5F5E
:1047A00080931A2E80911A2E803610F010921A2EB5
:1047B000DF91CF911F910F91FF90EF90DF90CF90FD
:1047C000BF90AF909F908F907F90089580911A2E08
:1047D0008370823009F0E3CC1198E1CC9091A5254B
:1047E0008091182E291302C081110DC09091A5252A
:1047F000992361F08091182E882371F08091142EF6
:104800008093A52552CD1092182EF4CF8111F2CFAE
:1048100081E08093182EEECF8091142E281B2093D8
:10482000A52543CD0E94684720E130E040E050E0FC
:104830000E94C7476093A52538CDF4E0880F991FE3
:10484000FA95E1F72A9DA0012B9D500D3A9D500D40
:104850001124840F951F865E904DE80FF92FF11DEE
:10486000EB5BFF4F8081870D0E94F10E82B18F714B
:10487000F8019081892BF9CD9C0120626ACE9C01C0
:1048800097FF67CEFACF82E08093140493CE97FD12
:1048900091CE109214048ECE109211047ECF119AF4
:1048A0000E9488200E9488200E9488200E948820E0
:1048B000119808951F920F920FB60F9211242F9303
:1048C0003F938F939F93AF93BF93809107339091C2
:1048D0000833A0910933B0910A333091063323E0B5
:1048E000230F2D3768F126E8230F0296A11DB11D75
:1048F000209306338093073390930833A0930933B2
:10490000B0930A3380910B3390910C33A0910D3307
:10491000B0910E330196A11DB11D80930B3390937E
:104920000C33A0930D33B0930E33BF91AF919F9191
:104930008F913F912F910F900FBE0F901F90189560
:104940000196A11DB11DD4CF1F920F920FB60F92E9
:1049500011240BB60F922F933F934F935F936F9356
:104960007F938F939F93AF93BF93EF93FF938BEDC1
:1049700094E30E947E04FF91EF91BF91AF919F91CC
:104980008F917F916F915F914F913F912F910F90F8
:104990000BBE0F900FBE0F901F9018951F920F9295
:1049A0000FB60F9211240BB60F922F938F939F93F4
:1049B000EF93FF93E091EB34F091EC348081E09140
:1049C000F134F091F23482FD1DC090818091F43475
:1049D0008F5F8F732091F534821741F0E091F434AA
:1049E000F0E0E552FB4C958F8093F434FF91EF910A
:1049F0009F918F912F910F900BBE0F900FBE0F9034
:104A00001F9018958081F2CF1F920F920FB60F92D0
:104A100011240BB60F922F933F934F935F936F9395
:104A20007F938F939F93AF93BF93EF93FF93809167
:104A3000B900887F803609F44DC008F040C0883244
:104A400009F4A7C028F5803109F49BC0C8F4882375
:104A500009F4F4C0883009F494C0FF91EF91BF913C
:104A6000AF919F918F917F916F915F914F913F9106
:104A70002F910F900BBE0F900FBE0F901F901895A7
:104A8000883109F486C0803241F780939B3314C08B
:104A9000803409F49BC040F48033B9F38833E9F6DD
:104AA00080939B3385ECAEC0803509F483C0883594
:104AB00009F494C0883489F60E94AB06CECF8839B9
:104AC00009F48AC038F5883729F050F4883611F097
:104AD000803719F683E080939D331092BD0655C050
:104AE000883809F479C0803919F0803809F0B5CFD9
:104AF0008091BD06823408F06FC0E091BD0681E070
:104B00008E0F8093BD068091BB00F0E0E558F94F11
:104B100080833BC0803B39F0D0F4803A09F477C001
:104B2000883A09F09ACF84E080939D3310927A06F8
:104B300010927906F0E0E0E0099580917906811104
:104B40000FC081E0809379061092370609C0803C3F
:104B500009F4A8CF883C09F4A5CF883B09F07DCFA4
:104B6000E0917A0681E08E0F80937A06F0E0E95CAE
:104B7000F94F80818093BB0090917A0680917906ED
:104B800029C0809198338093BB0085EC8093BC0052
:104B900064CF90919A3380919933981758F5E091AA
:104BA0009A3381E08E0F80939A33F0E0EB5AFC4CFD
:104BB0008081E9CFE0919A3381E08E0F80939A3320
:104BC0008091BB00F0E0EB5AFC4C808390919A33CB
:104BD000809199339817C8F285E8D8CFE0919A333D
:104BE00081E08E0F80939A338091BB00F0E0EB5A06
:104BF000FC4C808380919C3381115ECF81E0809357
:104C0000973384EA8093BC0010929D3326CF809125
:104C1000BD06823430F4E091BD06F0E0E558F94F6E
:104C200010820E94AB066091BD0670E08BE796E0B3
:104C3000F0E0E0E009951092BD0634CF10929B336E
:104C40003BCF1F920F920FB60F9211240BB60F920B
:104C5000EF92FF920F931F932F933F934F935F9386
:104C60006F937F938F939F93AF93BF93CF93DF9374
:104C7000EF93FF9310929100109295001092940080
:104C8000CDE3D1E007E911E059ECE52EFF24F394E0
:104C900020911204309113044991842F90E002C0B6
:104CA000369527954A95E2F720FF42C02091AC3215
:104CB00030E0E091A52544E0880F991F4A95E1F77F
:104CC0002E9DA0012F9D500D3E9D500D1124840F4F
:104CD000951F865E904DE80FF92FF11DEB5BFF4F9E
:104CE000908197FD9F778091A5252E9DF0012F9DA6
:104CF000F00D3E9DF00D1124E65EF04D258D368DB4
:104D000002C0369527958A95E2F780E020FF05C01E
:104D1000E853FE4F8081880F880F890F0E94F10EA3
:104D200082B18F71F8019081892B82B90E94AB0901
:104D30000F5F1F4FF1E0C234DF0709F0A9CF4091A8
:104D4000120450911304209114048091A82590918D
:104D5000A9258095909584239523822B0E94BD0FD1
:104D600085E08093B1001092130410921204FF9119
:104D7000EF91DF91CF91BF91AF919F918F917F91F3
:104D80006F915F914F913F912F911F910F91FF90E4
:104D9000EF900F900BBE0F900FBE0F901F901895C5
:104DA0001F920F920FB60F9211240BB60F922F93F2
:104DB0003F934F935F936F937F938F939F93AF93A3
:104DC000BF93EF93FF931092B1001092B2008091C5
:104DD000140490E00E94BD0FFF91EF91BF91AF913D
:104DE0009F918F917F916F915F914F913F912F9103
:104DF0000F900BBE0F900FBE0F901F9018951F9233
:104E00000F920FB60F9211240BB60F922F933F9370
:104E10004F935F936F937F938F939F93AF93BF93C2
:104E2000EF93FF930E948820FF91EF91BF91AF9184
:104E30009F918F917F916F915F914F913F912F91B2
:104E40000F900BBE0F900FBE0F901F901895EBEDBB
:104E5000F4E31382128248EE53E060E070E0448392
:104E600055836683778380E192E0918380838DEC24
:104E700090E0958784878CEC90E09787868788EC14
:104E800090E0918B808B89EC90E0938B828B8AEC05
:104E900090E0958B848B8EEC90E0978B868B118EB7
:104EA000128E138E148EA7EEB3E313961C921E92ED
:104EB000129714964D935D936D937C93179782E2AE
:104EC00092E08D939C93ACE7B5E391E59C9381E0F0
:104ED00011968C93AAE7B5E39C9311968C93F0936B
:104EE0007935E0937835EBE0F4E311821082138298
:104EF00012821582148217821682118610861386FA
:104F000012861586148617861686118A108A138AC9
:104F1000128A158A148A178A168A118E108E138E99
:104F2000128E158E148E178E168E11A210A213A239
:104F300012A215A214A217A216A211A610A688E703
:104F400095E393A782A714A615A616A613AA12AADC
:104F500015AA14AA8FEF9FEF97AB86AB91AF80AFE6
:104F600083E08093453413AE14AE15AE16AE1092A6
:104F7000CA34EAE4F4E380E8DF011D928A95E9F798
:104F80001092CD341092CE341092CF341092D0348F
:104F90001092D1341092D2341092D3341092D4346F
:104FA0001092D5341092D6341092D7341092D8344F
:104FB0001092D9341092DA34E3EFF3E313821282C1
:104FC00084E392E09183808382E184838FEF858301
:104FD00083E1868384E1878385E1808786E1818719
:104FE00087E182871386148615861686178681E0E8
:104FF0000C94DD05CF93DF93CDB7DEB760970FB686
:10500000F894DEBF0FBECDBF789484B5836084BDB5
:1050100085B5836085BD80916E00816080936E0050
:1050200072E0C72EC09281008091810081608093E0
:105030008100809180008160809380008091B10028
:1050400084608093B1008091B00081608093B00053
:1050500080919100836080939100809190008160A5
:105060008093900087E880937A001092C10084B109
:10507000886D84B98AB1806F8AB981B18C6E81B92B
:10508000129A61E088E10E943C0361E089E10E949C
:105090003C0361E08AE10E943C0361E08BE10E94F5
:1050A0003C0360E080E00E943C0360E081E00E94FD
:1050B0003C0361E084E00E94E00261E084E00E9441
:1050C0003C038CB580618CBD8CB580648CBD61E087
:1050D00087E00E943C0361E085E00E943C038091F0
:1050E000BF06823028F48FB7F894C092BF068FBFF6
:1050F0001092E1331092E033109210331092543337
:1051000010929D3381E080939C331092973361E03D
:1051100081E10E94E00261E080E10E94E002809172
:10512000B9008E7F8093B9008091B9008D7F809304
:10513000B90088E48093B80085E48093BC00E1E581
:10514000FEE216823B960FE2E130F007D1F71092B3
:10515000D5321092EC321092CA321092302E109248
:105160003B2E90E080E00E94BD0F40E070E060E0E8
:1051700090E080E00E9441100E94B20710929000DF
:105180001092920010929100F89410929500109253
:1051900094008FE697E1909399008093980078941B
:1051A00082E0809371000E94DD0569E271E080E099
:1051B0000E94850661E271E081E00E94850669E156
:1051C00071E082E00E94850661E171E083E00E9467
:1051D000850669E071E084E00E94850661E071E087
:1051E00085E00E94850680917C3590917D350E94F6
:1051F000DA0E5C9A80E00E94D30E80E00E94D30E0B
:1052000080E00E94D30E8093C90680E00E94D30EF6
:1052100080E00E94D30E8093C4065C980E94C70E63
:105220008091C906813809F09BC160E080E00E944E
:10523000C70584E793E00E94461761E080E00E9482
:10524000C7050E94E61761E080E00E94C70585E877
:1052500093E00E9446170E94CF036B017C01C0922D
:10526000C506D092C606E092C706F092C8060E9414
:10527000E9150E94CF036C197D098E099F096938D1
:1052800073418105910508F06BC18091202E882320
:1052900071F38091AC25882351F350ECC52ED12CAD
:1052A000E12CF12C10E0412C512C32014394C70128
:1052B000B601605C7109810991090E94380D00E115
:1052C0000A8360E087EE93E30E94120760E087EEB6
:1052D00093E30E9412070A8101500A830111F1CF62
:1052E0006FE087EE93E30E94120768E187EE93E395
:1052F0000E94120761E087EE93E30E94120760E0CC
:1053000087EE93E30E94120760E087EE93E30E942A
:10531000120760E087EE93E30E94120760E087EED9
:1053200093E30E94120760E087EE93E30E94120766
:105330000E94A10165E070E080E090E00E949D0382
:105340004601570120E8821A9108A108B10842E0FD
:1053500050E05B834A83C501B4010E94380D00E42C
:1053600060E087EE93E30E9412070150C9F70E94A4
:10537000A10165E070E080E090E00E949D0370E490
:10538000870E911CA11CB11C8A819B81019709F099
:1053900007C146015701A4E0B0E0BB83AA83C50161
:1053A000B4010E94380D04E040E1342E60E087EE45
:1053B00093E30E9412073A943110F8CF0150A1F7FD
:1053C0000E94A10165E070E080E090E00E949D03F2
:1053D000EA81FB813197FB83EA83F0E48F0E911C15
:1053E000A11CB11C2A813B81232BC9F6812F8695F4
:1053F00086958695B301A20104C0440F551F661F10
:10540000771F8A95D2F7CA012091C2063091C30650
:10541000822B932B9093C3068093C20640E070E0EA
:1054200060E00E9441101F5F50ECC50E51E0D51E98
:10543000E11CF11C60ECC61660EED606E104F10436
:1054400009F035CF1B821A82C12C20EED22EE12C1E
:10545000F12C412C512C320143944601570110E0AC
:1054600000E0C501B4010E94380D90E4392E60E0DF
:1054700087EE93E30E9412073A943110F8CF0E940E
:10548000A10165E070E080E090E00E949D030F5F65
:105490001F4F70E4870E911CA11CB11C0031110537
:1054A00001F7D301C2010A8004C0880F991FAA1F07
:1054B000BB1F0A94D2F72091C0063091C106822BFF
:1054C000932B9093C1068093C00640E070E060E0AB
:1054D0000E9441100A811B810F5F1F4F1B830A83AB
:1054E00014E0D10EE11CF11C0A811B810031110571
:1054F00009F0B3CF60E070E281E090E00E94380DE7
:1055000060E087EE93E30E94120768E787EE93E37B
:105510000E94120761E087EE93E30E94120761E0A8
:1055200087EE93E30E94120761E087EE93E30E9407
:10553000120761E087EE93E30E94120762E087EEB4
:1055400093E30E94120763E087EE93E30E94120741
:105550000E94A10165E070E080E090E00E949D0360
:105560001092C9068091C4068830F9F460E080E0AA
:105570000E94C70586E993E00E94461761E080E03B
:105580000E94C7050E94E61761E080E00E94C705FF
:1055900087EA93E00E9446178FE70E94F10EFCCF46
:1055A00061E070E07B836A83D6CE60E070E281E0E8
:1055B00090E00E94380D0E94A10184E590E00E94D5
:1055C0005B010E94480199278330910514F082E025
:1055D00090E08093F6320E94480199278B3F910515
:1055E00010F08AEF90E08E31910510F48EE190E09A
:1055F000909300338093FF320E94480199270097CF
:1056000009F461C28131910514F080E190E080934A
:10561000F8320E9448019927009709F457C2813156
:10562000910514F080E190E08093F9320E944801E6
:1056300091E0811101C090E09093F5320E94480101
:1056400091E0811101C090E0909305330E944801E0
:105650009927009709F43DC28131910514F080E14A
:1056600090E08093FA320E94480199278530910595
:1056700010F084E090E09093FC328093FB32109223
:105680001A2E1092142E109202331092033380E4DB
:1056900080937C0080917A00806480937A0080916E
:1056A0007A0086FDFCCF6091780070917900072E1A
:1056B000000C880B990B611571058105910511F09E
:1056C0000E94B747109201338091FB329091FC32D7
:1056D00090933501809334018091FF329091003393
:1056E0009093FE328093FD320E94F9081092F732B7
:1056F00080E00E94610D80E00E94721A8091AC32BD
:1057000011E0812729EC31E0829FA001839F500D99
:105710001124465E504D5B834A83E3EFF6E0DA01E5
:1057200001900D9221503040D9F78093AC328A819C
:105730009B810E941D088A819B810E9481088A8129
:105740009B810E94CD0760E083E00E940D0F90E0F6
:1057500080E00E94BD0FE0913534F0913634019025
:10576000F081E02DA089B18982E08C93A485B58574
:105770001C92A685B7858FE38C93108EA489B5897A
:1057800086E08C93A289B3898C9188698C93028876
:10579000F389E02D80818F7D8083109337341092C0
:1057A0003934109238341092403410923F341092B1
:1057B0003E3410923D348FEF9FEF909342348093AC
:1057C000413490934434809343340E94CF036093D8
:1057D000CD347093CE348093CF349093D0341092E4
:1057E000CA341092473410924634109248341092C2
:1057F00049341092CC341092CB348091F93280939A
:1058000037341092453478940E94D60560E080E0E9
:105810000E94C70585EB93E00E94461761E080E097
:105820000E94C70586EC93E00E94461760ED77E082
:1058300080E090E00E949D030E946E1C89EC282E5F
:10584000332433948091F632823009F070C2809113
:10585000F632823009F06BC20E94EA17C090B200A3
:10586000CA82C092DA0602E010E08091632590E0DF
:10587000002E02C0959587950A94E2F780FF22C01A
:10588000F801E653F94F8081DA80D81A8D2D8032E5
:10589000C8F02091632581E090E0002E02C0880FBF
:1058A000991F0A94E2F78095909530E08223932324
:1058B0000E94BD0F809163258D7F21F41092E50633
:1058C0001092E4060F5F1F4F0C30110571F68091A6
:1058D000EC0680FF0E94DB038091033381119AC0A4
:1058E0000E945C151091422E13FB882780F980934B
:1058F000032F6091432E607170E086EE92E30E9468
:10590000AC0EE090442EEA826E2D617070E080ED66
:1059100095E20E94AC0E6A81627070E085E39EE2BF
:105920000E94AC0E0A810470602F70E085EC95E255
:105930000E94AC0E612F617070E08FEC92E30E94C8
:10594000AC0E6091DD0670E08AE29EE20E94AC0E31
:105950008091D3258823B9F08091EA06882309F441
:10596000BBC011E01093EB061092EA068091EB06A3
:1059700061E0882309F4B7C080E00E94C70587ED85
:1059800093E00E9446178091382E8823B9F08091C9
:10599000EB06882309F4ADC01092EB0631E030939A
:1059A000EA068091EA0661E0882309F4A9C080E054
:1059B0000E94C70588EE93E00E9446178091E93265
:1059C000882339F081E09091E906911180E080937D
:1059D000E9068091EA06882309F498C00E94E20D46
:1059E0008091D232882351F08091A8259091A925E9
:1059F00051E085279093A9258093A82580912C2E8E
:105A0000882341F01092A9251092A8251092F10642
:105A10001092F006409103331091E9061A83909199
:105A2000EB065091EA0680910433612F70E0762FE7
:105A300066277295707F782B292F30E0322F22272E
:105A40003295330F307E622B732B252F30E030E4FC
:105A5000239F302D22271124262B372B6091C72519
:105A6000842F862B682F70E07727669577956627B9
:105A7000622B732B7093E8066093E706442369F06A
:105A80008091E606883008F4B3C027E030E0309318
:105A9000E5062093E4061092E6064091E3060091A5
:105AA000E4061091E506552309F4B5C08091A825B8
:105AB0008170482B8091F0069091F106802B912BFC
:105AC0000E944110C5C081E090E0A1CD81E090E04E
:105AD000ABCD81E090E0C5CD8091EB0621E082273F
